{
  "_format": "hh-sol-artifact-1",
  "contractName": "BuyMyRoom",
  "sourceName": "contracts/BuyMyRoom.sol",
  "abi": [
    {
      "inputs": [],
      "stateMutability": "nonpayable",
      "type": "constructor"
    },
    {
      "anonymous": false,
      "inputs": [
        {
          "indexed": false,
          "internalType": "uint256",
          "name": "tokenId",
          "type": "uint256"
        },
        {
          "indexed": false,
          "internalType": "uint256",
          "name": "price",
          "type": "uint256"
        },
        {
          "indexed": false,
          "internalType": "address",
          "name": "owner",
          "type": "address"
        }
      ],
      "name": "HouseListed",
      "type": "event"
    },
    {
      "anonymous": false,
      "inputs": [
        {
          "indexed": false,
          "internalType": "uint256",
          "name": "tokenId",
          "type": "uint256"
        },
        {
          "indexed": false,
          "internalType": "uint256",
          "name": "price",
          "type": "uint256"
        },
        {
          "indexed": false,
          "internalType": "address",
          "name": "buyer",
          "type": "address"
        },
        {
          "indexed": false,
          "internalType": "address",
          "name": "seller",
          "type": "address"
        }
      ],
      "name": "HouseSold",
      "type": "event"
    },
    {
      "anonymous": false,
      "inputs": [
        {
          "indexed": false,
          "internalType": "uint256",
          "name": "tokenId",
          "type": "uint256"
        },
        {
          "indexed": false,
          "internalType": "address",
          "name": "owner",
          "type": "address"
        }
      ],
      "name": "HouseUnlisted",
      "type": "event"
    },
    {
      "inputs": [
        {
          "internalType": "uint256",
          "name": "tokenId",
          "type": "uint256"
        }
      ],
      "name": "buyHouse",
      "outputs": [],
      "stateMutability": "nonpayable",
      "type": "function"
    },
    {
      "inputs": [],
      "name": "getAllListedHouses",
      "outputs": [
        {
          "components": [
            {
              "internalType": "uint256",
              "name": "id",
              "type": "uint256"
            },
            {
              "internalType": "string",
              "name": "name",
              "type": "string"
            },
            {
              "internalType": "string",
              "name": "description",
              "type": "string"
            },
            {
              "internalType": "uint256",
              "name": "price",
              "type": "uint256"
            },
            {
              "internalType": "bool",
              "name": "isListed",
              "type": "bool"
            }
          ],
          "internalType": "struct BuyMyRoom.HouseInfo[]",
          "name": "",
          "type": "tuple[]"
        }
      ],
      "stateMutability": "view",
      "type": "function"
    },
    {
      "inputs": [
        {
          "internalType": "address",
          "name": "user",
          "type": "address"
        }
      ],
      "name": "getUserHouses",
      "outputs": [
        {
          "components": [
            {
              "internalType": "uint256",
              "name": "id",
              "type": "uint256"
            },
            {
              "internalType": "string",
              "name": "name",
              "type": "string"
            },
            {
              "internalType": "string",
              "name": "description",
              "type": "string"
            },
            {
              "internalType": "uint256",
              "name": "price",
              "type": "uint256"
            },
            {
              "internalType": "bool",
              "name": "isListed",
              "type": "bool"
            }
          ],
          "internalType": "struct BuyMyRoom.HouseInfo[]",
          "name": "",
          "type": "tuple[]"
        }
      ],
      "stateMutability": "view",
      "type": "function"
    },
    {
      "inputs": [
        {
          "internalType": "uint256",
          "name": "",
          "type": "uint256"
        }
      ],
      "name": "houses",
      "outputs": [
        {
          "internalType": "address",
          "name": "owner",
          "type": "address"
        },
        {
          "internalType": "uint256",
          "name": "listedTimestamp",
          "type": "uint256"
        },
        {
          "internalType": "bool",
          "name": "isListed",
          "type": "bool"
        },
        {
          "internalType": "string",
          "name": "name",
          "type": "string"
        },
        {
          "internalType": "string",
          "name": "description",
          "type": "string"
        },
        {
          "internalType": "uint256",
          "name": "price",
          "type": "uint256"
        }
      ],
      "stateMutability": "view",
      "type": "function"
    },
    {
      "inputs": [],
      "name": "myERC20",
      "outputs": [
        {
          "internalType": "contract MyERC20",
          "name": "",
          "type": "address"
        }
      ],
      "stateMutability": "view",
      "type": "function"
    },
    {
      "inputs": [],
      "name": "totalHouse",
      "outputs": [
        {
          "internalType": "uint256",
          "name": "",
          "type": "uint256"
        }
      ],
      "stateMutability": "view",
      "type": "function"
    },
    {
      "inputs": [
        {
          "internalType": "uint256",
          "name": "tokenId",
          "type": "uint256"
        },
        {
          "internalType": "string",
          "name": "name",
          "type": "string"
        },
        {
          "internalType": "string",
          "name": "description",
          "type": "string"
        },
        {
          "internalType": "uint256",
          "name": "price",
          "type": "uint256"
        },
        {
          "internalType": "bool",
          "name": "isListed",
          "type": "bool"
        }
      ],
      "name": "updateHouseInfo",
      "outputs": [],
      "stateMutability": "nonpayable",
      "type": "function"
    }
  ],
  "bytecode": "0x6080604052600080553480156200001557600080fd5b50336040516200002590620002fe565b62000031919062000402565b604051809103906000f0801580156200004e573d6000803e3d6000fd5b50600160006101000a81548173ffffffffffffffffffffffffffffffffffffffff021916908373ffffffffffffffffffffffffffffffffffffffff16021790555033600260006101000a81548173ffffffffffffffffffffffffffffffffffffffff021916908373ffffffffffffffffffffffffffffffffffffffff1602179055506200014f60006040518060400160405280600781526020017f486f7573652031000000000000000000000000000000000000000000000000008152506040518060400160405280600d81526020017f4465736372697074696f6e20310000000000000000000000000000000000000081525033620001d460201b60201c565b620001ce60016040518060400160405280600781526020017f486f7573652032000000000000000000000000000000000000000000000000008152506040518060400160405280600d81526020017f4465736372697074696f6e20320000000000000000000000000000000000000081525033620001d460201b60201c565b62000814565b6001600080828254620001e8919062000482565b925050819055506040518060c001604052808273ffffffffffffffffffffffffffffffffffffffff1681526020016000815260200160001515815260200184815260200183815260200160008152506003600086815260200190815260200160002060008201518160000160006101000a81548173ffffffffffffffffffffffffffffffffffffffff021916908373ffffffffffffffffffffffffffffffffffffffff1602179055506020820151816001015560408201518160020160006101000a81548160ff0219169083151502179055506060820151816003019081620002d291906200072d565b506080820151816004019081620002ea91906200072d565b5060a0820151816005015590505050505050565b611bd18062002a3583390190565b600082825260208201905092915050565b7f4d79455243323000000000000000000000000000000000000000000000000000600082015250565b6000620003556007836200030c565b915062000362826200031d565b602082019050919050565b7f4d59540000000000000000000000000000000000000000000000000000000000600082015250565b6000620003a56003836200030c565b9150620003b2826200036d565b602082019050919050565b600073ffffffffffffffffffffffffffffffffffffffff82169050919050565b6000620003ea82620003bd565b9050919050565b620003fc81620003dd565b82525050565b600060608201905081810360008301526200041d8162000346565b90508181036020830152620004328162000396565b9050620004436040830184620003f1565b92915050565b6000819050919050565b7f4e487b7100000000000000000000000000000000000000000000000000000000600052601160045260246000fd5b60006200048f8262000449565b91506200049c8362000449565b9250828201905080821115620004b757620004b662000453565b5b92915050565b600081519050919050565b7f4e487b7100000000000000000000000000000000000000000000000000000000600052604160045260246000fd5b7f4e487b7100000000000000000000000000000000000000000000000000000000600052602260045260246000fd5b600060028204905060018216806200053f57607f821691505b602082108103620005555762000554620004f7565b5b50919050565b60008190508160005260206000209050919050565b60006020601f8301049050919050565b600082821b905092915050565b600060088302620005bf7fffffffffffffffffffffffffffffffffffffffffffffffffffffffffffffffff8262000580565b620005cb868362000580565b95508019841693508086168417925050509392505050565b6000819050919050565b60006200060e62000608620006028462000449565b620005e3565b62000449565b9050919050565b6000819050919050565b6200062a83620005ed565b62000642620006398262000615565b8484546200058d565b825550505050565b600090565b620006596200064a565b620006668184846200061f565b505050565b5b818110156200068e57620006826000826200064f565b6001810190506200066c565b5050565b601f821115620006dd57620006a7816200055b565b620006b28462000570565b81016020851015620006c2578190505b620006da620006d18562000570565b8301826200066b565b50505b505050565b600082821c905092915050565b60006200070260001984600802620006e2565b1980831691505092915050565b60006200071d8383620006ef565b9150826002028217905092915050565b6200073882620004bd565b67ffffffffffffffff811115620007545762000753620004c8565b5b62000760825462000526565b6200076d82828562000692565b600060209050601f831160018114620007a5576000841562000790578287015190505b6200079c85826200070f565b8655506200080c565b601f198416620007b5866200055b565b60005b82811015620007df57848901518255600182019150602085019450602081019050620007b8565b86831015620007ff5784890151620007fb601f891682620006ef565b8355505b6001600288020188555050505b505050505050565b61221180620008246000396000f3fe608060405234801561001057600080fd5b506004361061007d5760003560e01c80639e407d201161005b5780639e407d20146100dc578063aeda852f1461010c578063c77c6d9914610141578063eddc42691461015d5761007d565b806339f68888146100825780636d3739c4146100a0578063819782b3146100be575b600080fd5b61008a610179565b6040516100979190611373565b60405180910390f35b6100a861017f565b6040516100b5919061140d565b60405180910390f35b6100c66101a5565b6040516100d39190611621565b60405180910390f35b6100f660048036038101906100f19190611695565b6104eb565b6040516101039190611621565b60405180910390f35b610126600480360381019061012191906116ee565b6108b3565b60405161013896959493929190611783565b60405180910390f35b61015b60048036038101906101569190611953565b610a2c565b005b610177600480360381019061017291906116ee565b610ba1565b005b60005481565b600160009054906101000a900473ffffffffffffffffffffffffffffffffffffffff1681565b60606000805b600054811015610201576003600082815260200190815260200160002060020160009054906101000a900460ff16156101ee576001826101eb9190611a35565b91505b80806101f990611a69565b9150506101ab565b5060008167ffffffffffffffff81111561021e5761021d6117fc565b5b60405190808252806020026020018201604052801561025757816020015b610244611329565b81526020019060019003908161023c5790505b5090506000805b6000548110156104e1576003600082815260200190815260200160002060020160009054906101000a900460ff16156104ce57808383815181106102a5576102a4611ab1565b5b602002602001015160000181815250506003600082815260200190815260200160002060030180546102d690611b0f565b80601f016020809104026020016040519081016040528092919081815260200182805461030290611b0f565b801561034f5780601f106103245761010080835404028352916020019161034f565b820191906000526020600020905b81548152906001019060200180831161033257829003601f168201915b505050505083838151811061036757610366611ab1565b5b60200260200101516020018190525060036000828152602001908152602001600020600401805461039790611b0f565b80601f01602080910402602001604051908101604052809291908181526020018280546103c390611b0f565b80156104105780601f106103e557610100808354040283529160200191610410565b820191906000526020600020905b8154815290600101906020018083116103f357829003601f168201915b505050505083838151811061042857610427611ab1565b5b602002602001015160400181905250600360008281526020019081526020016000206005015483838151811061046157610460611ab1565b5b602002602001015160600181815250506003600082815260200190815260200160002060020160009054906101000a900460ff168383815181106104a8576104a7611ab1565b5b602002602001015160800190151590811515815250506001826104cb9190611a35565b91505b80806104d990611a69565b91505061025e565b5081935050505090565b60606000805b600054811015610587578373ffffffffffffffffffffffffffffffffffffffff166003600083815260200190815260200160002060000160009054906101000a900473ffffffffffffffffffffffffffffffffffffffff1673ffffffffffffffffffffffffffffffffffffffff1603610574576001826105719190611a35565b91505b808061057f90611a69565b9150506104f1565b5060008167ffffffffffffffff8111156105a4576105a36117fc565b5b6040519080825280602002602001820160405280156105dd57816020015b6105ca611329565b8152602001906001900390816105c25790505b5090506000805b6000548110156108a7578573ffffffffffffffffffffffffffffffffffffffff166003600083815260200190815260200160002060000160009054906101000a900473ffffffffffffffffffffffffffffffffffffffff1673ffffffffffffffffffffffffffffffffffffffff1603610894578083838151811061066b5761066a611ab1565b5b6020026020010151600001818152505060036000828152602001908152602001600020600301805461069c90611b0f565b80601f01602080910402602001604051908101604052809291908181526020018280546106c890611b0f565b80156107155780601f106106ea57610100808354040283529160200191610715565b820191906000526020600020905b8154815290600101906020018083116106f857829003601f168201915b505050505083838151811061072d5761072c611ab1565b5b60200260200101516020018190525060036000828152602001908152602001600020600401805461075d90611b0f565b80601f016020809104026020016040519081016040528092919081815260200182805461078990611b0f565b80156107d65780601f106107ab576101008083540402835291602001916107d6565b820191906000526020600020905b8154815290600101906020018083116107b957829003601f168201915b50505050508383815181106107ee576107ed611ab1565b5b602002602001015160400181905250600360008281526020019081526020016000206005015483838151811061082757610826611ab1565b5b602002602001015160600181815250506003600082815260200190815260200160002060020160009054906101000a900460ff1683838151811061086e5761086d611ab1565b5b602002602001015160800190151590811515815250506001826108919190611a35565b91505b808061089f90611a69565b9150506105e4565b50819350505050919050565b60036020528060005260406000206000915090508060000160009054906101000a900473ffffffffffffffffffffffffffffffffffffffff16908060010154908060020160009054906101000a900460ff169080600301805461091590611b0f565b80601f016020809104026020016040519081016040528092919081815260200182805461094190611b0f565b801561098e5780601f106109635761010080835404028352916020019161098e565b820191906000526020600020905b81548152906001019060200180831161097157829003601f168201915b5050505050908060040180546109a390611b0f565b80601f01602080910402602001604051908101604052809291908181526020018280546109cf90611b0f565b8015610a1c5780601f106109f157610100808354040283529160200191610a1c565b820191906000526020600020905b8154815290600101906020018083116109ff57829003601f168201915b5050505050908060050154905086565b843373ffffffffffffffffffffffffffffffffffffffff166003600083815260200190815260200160002060000160009054906101000a900473ffffffffffffffffffffffffffffffffffffffff1673ffffffffffffffffffffffffffffffffffffffff1614610ad1576040517f08c379a0000000000000000000000000000000000000000000000000000000008152600401610ac890611bb2565b60405180910390fd5b818015610aff57506003600087815260200190815260200160002060020160009054906101000a900460ff16155b15610b1357610b0e868461100a565b610b51565b81158015610b4157506003600087815260200190815260200160002060020160009054906101000a900460ff165b15610b5057610b4f86611197565b5b5b84600360008881526020019081526020016000206003019081610b749190611d74565b5083600360008881526020019081526020016000206004019081610b989190611d74565b50505050505050565b806003600082815260200190815260200160002060020160009054906101000a900460ff16610c05576040517f08c379a0000000000000000000000000000000000000000000000000000000008152600401610bfc90611e92565b60405180910390fd5b6003600083815260200190815260200160002060050154600160009054906101000a900473ffffffffffffffffffffffffffffffffffffffff1673ffffffffffffffffffffffffffffffffffffffff166327e235e3336040518263ffffffff1660e01b8152600401610c779190611eb2565b602060405180830381865afa158015610c94573d6000803e3d6000fd5b505050506040513d601f19601f82011682018060405250810190610cb89190611ee2565b1015610cf9576040517f08c379a0000000000000000000000000000000000000000000000000000000008152600401610cf090611f5b565b60405180910390fd5b60006003600084815260200190815260200160002060000160009054906101000a900473ffffffffffffffffffffffffffffffffffffffff169050600160009054906101000a900473ffffffffffffffffffffffffffffffffffffffff1673ffffffffffffffffffffffffffffffffffffffff166323b872dd338360036000888152602001908152602001600020600501546040518463ffffffff1660e01b8152600401610da993929190611f7b565b6020604051808303816000875af1158015610dc8573d6000803e3d6000fd5b505050506040513d601f19601f82011682018060405250810190610dec9190611fc7565b50600060646003600086815260200190815260200160002060050154600a600360008881526020019081526020016000206001015442610e2c9190611ff4565b610e369190612057565b610e409190612088565b610e4a9190612057565b9050600160009054906101000a900473ffffffffffffffffffffffffffffffffffffffff1673ffffffffffffffffffffffffffffffffffffffff166323b872dd33600260009054906101000a900473ffffffffffffffffffffffffffffffffffffffff16846040518463ffffffff1660e01b8152600401610ecd93929190611f7b565b6020604051808303816000875af1158015610eec573d6000803e3d6000fd5b505050506040513d601f19601f82011682018060405250810190610f109190611fc7565b50336003600086815260200190815260200160002060000160006101000a81548173ffffffffffffffffffffffffffffffffffffffff021916908373ffffffffffffffffffffffffffffffffffffffff16021790555060006003600086815260200190815260200160002060020160006101000a81548160ff021916908315150217905550600060036000868152602001908152602001600020600501819055507f6fd7da1e5aabdf035f2d60271746b8b696eca06faba052c2331da059aaf9419a8460036000878152602001908152602001600020600501543385604051610ffc94939291906120ca565b60405180910390a150505050565b813373ffffffffffffffffffffffffffffffffffffffff166003600083815260200190815260200160002060000160009054906101000a900473ffffffffffffffffffffffffffffffffffffffff1673ffffffffffffffffffffffffffffffffffffffff16146110af576040517f08c379a00000000000000000000000000000000000000000000000000000000081526004016110a690611bb2565b60405180910390fd5b600082116110f2576040517f08c379a00000000000000000000000000000000000000000000000000000000081526004016110e99061215b565b60405180910390fd5b60016003600085815260200190815260200160002060020160006101000a81548160ff0219169083151502179055504260036000858152602001908152602001600020600101819055508160036000858152602001908152602001600020600501819055507f60b3e540896cf4a419e7b7274a1f1282223f5d92ca6f0152cf820fe457fb484383833360405161118a9392919061217b565b60405180910390a1505050565b803373ffffffffffffffffffffffffffffffffffffffff166003600083815260200190815260200160002060000160009054906101000a900473ffffffffffffffffffffffffffffffffffffffff1673ffffffffffffffffffffffffffffffffffffffff161461123c576040517f08c379a000000000000000000000000000000000000000000000000000000000815260040161123390611bb2565b60405180910390fd5b816003600082815260200190815260200160002060020160009054906101000a900460ff166112a0576040517f08c379a000000000000000000000000000000000000000000000000000000000815260040161129790611e92565b60405180910390fd5b60006003600085815260200190815260200160002060020160006101000a81548160ff021916908315150217905550600060036000858152602001908152602001600020600501819055507f06e7facda0abccbe6a69ca20d4f51228acc0fe8d6074921bbb0434a14afe79e8833360405161131c9291906121b2565b60405180910390a1505050565b6040518060a00160405280600081526020016060815260200160608152602001600081526020016000151581525090565b6000819050919050565b61136d8161135a565b82525050565b60006020820190506113886000830184611364565b92915050565b600073ffffffffffffffffffffffffffffffffffffffff82169050919050565b6000819050919050565b60006113d36113ce6113c98461138e565b6113ae565b61138e565b9050919050565b60006113e5826113b8565b9050919050565b60006113f7826113da565b9050919050565b611407816113ec565b82525050565b600060208201905061142260008301846113fe565b92915050565b600081519050919050565b600082825260208201905092915050565b6000819050602082019050919050565b61145d8161135a565b82525050565b600081519050919050565b600082825260208201905092915050565b60005b8381101561149d578082015181840152602081019050611482565b60008484015250505050565b6000601f19601f8301169050919050565b60006114c582611463565b6114cf818561146e565b93506114df81856020860161147f565b6114e8816114a9565b840191505092915050565b60008115159050919050565b611508816114f3565b82525050565b600060a0830160008301516115266000860182611454565b506020830151848203602086015261153e82826114ba565b9150506040830151848203604086015261155882826114ba565b915050606083015161156d6060860182611454565b50608083015161158060808601826114ff565b508091505092915050565b6000611597838361150e565b905092915050565b6000602082019050919050565b60006115b782611428565b6115c18185611433565b9350836020820285016115d385611444565b8060005b8581101561160f57848403895281516115f0858261158b565b94506115fb8361159f565b925060208a019950506001810190506115d7565b50829750879550505050505092915050565b6000602082019050818103600083015261163b81846115ac565b905092915050565b6000604051905090565b600080fd5b600080fd5b60006116628261138e565b9050919050565b61167281611657565b811461167d57600080fd5b50565b60008135905061168f81611669565b92915050565b6000602082840312156116ab576116aa61164d565b5b60006116b984828501611680565b91505092915050565b6116cb8161135a565b81146116d657600080fd5b50565b6000813590506116e8816116c2565b92915050565b6000602082840312156117045761170361164d565b5b6000611712848285016116d9565b91505092915050565b61172481611657565b82525050565b611733816114f3565b82525050565b600082825260208201905092915050565b600061175582611463565b61175f8185611739565b935061176f81856020860161147f565b611778816114a9565b840191505092915050565b600060c082019050611798600083018961171b565b6117a56020830188611364565b6117b2604083018761172a565b81810360608301526117c4818661174a565b905081810360808301526117d8818561174a565b90506117e760a0830184611364565b979650505050505050565b600080fd5b600080fd5b7f4e487b7100000000000000000000000000000000000000000000000000000000600052604160045260246000fd5b611834826114a9565b810181811067ffffffffffffffff82111715611853576118526117fc565b5b80604052505050565b6000611866611643565b9050611872828261182b565b919050565b600067ffffffffffffffff821115611892576118916117fc565b5b61189b826114a9565b9050602081019050919050565b82818337600083830152505050565b60006118ca6118c584611877565b61185c565b9050828152602081018484840111156118e6576118e56117f7565b5b6118f18482856118a8565b509392505050565b600082601f83011261190e5761190d6117f2565b5b813561191e8482602086016118b7565b91505092915050565b611930816114f3565b811461193b57600080fd5b50565b60008135905061194d81611927565b92915050565b600080600080600060a0868803121561196f5761196e61164d565b5b600061197d888289016116d9565b955050602086013567ffffffffffffffff81111561199e5761199d611652565b5b6119aa888289016118f9565b945050604086013567ffffffffffffffff8111156119cb576119ca611652565b5b6119d7888289016118f9565b93505060606119e8888289016116d9565b92505060806119f98882890161193e565b9150509295509295909350565b7f4e487b7100000000000000000000000000000000000000000000000000000000600052601160045260246000fd5b6000611a408261135a565b9150611a4b8361135a565b9250828201905080821115611a6357611a62611a06565b5b92915050565b6000611a748261135a565b91507fffffffffffffffffffffffffffffffffffffffffffffffffffffffffffffffff8203611aa657611aa5611a06565b5b600182019050919050565b7f4e487b7100000000000000000000000000000000000000000000000000000000600052603260045260246000fd5b7f4e487b7100000000000000000000000000000000000000000000000000000000600052602260045260246000fd5b60006002820490506001821680611b2757607f821691505b602082108103611b3a57611b39611ae0565b5b50919050565b7f4f6e6c79206f776e65722063616e2063616c6c20746869732066756e6374696f60008201527f6e00000000000000000000000000000000000000000000000000000000000000602082015250565b6000611b9c602183611739565b9150611ba782611b40565b604082019050919050565b60006020820190508181036000830152611bcb81611b8f565b9050919050565b60008190508160005260206000209050919050565b60006020601f8301049050919050565b600082821b905092915050565b600060088302611c347fffffffffffffffffffffffffffffffffffffffffffffffffffffffffffffffff82611bf7565b611c3e8683611bf7565b95508019841693508086168417925050509392505050565b6000611c71611c6c611c678461135a565b6113ae565b61135a565b9050919050565b6000819050919050565b611c8b83611c56565b611c9f611c9782611c78565b848454611c04565b825550505050565b600090565b611cb4611ca7565b611cbf818484611c82565b505050565b5b81811015611ce357611cd8600082611cac565b600181019050611cc5565b5050565b601f821115611d2857611cf981611bd2565b611d0284611be7565b81016020851015611d11578190505b611d25611d1d85611be7565b830182611cc4565b50505b505050565b600082821c905092915050565b6000611d4b60001984600802611d2d565b1980831691505092915050565b6000611d648383611d3a565b9150826002028217905092915050565b611d7d82611463565b67ffffffffffffffff811115611d9657611d956117fc565b5b611da08254611b0f565b611dab828285611ce7565b600060209050601f831160018114611dde5760008415611dcc578287015190505b611dd68582611d58565b865550611e3e565b601f198416611dec86611bd2565b60005b82811015611e1457848901518255600182019150602085019450602081019050611def565b86831015611e315784890151611e2d601f891682611d3a565b8355505b6001600288020188555050505b505050505050565b7f486f757365206973206e6f74206c697374656400000000000000000000000000600082015250565b6000611e7c601383611739565b9150611e8782611e46565b602082019050919050565b60006020820190508181036000830152611eab81611e6f565b9050919050565b6000602082019050611ec7600083018461171b565b92915050565b600081519050611edc816116c2565b92915050565b600060208284031215611ef857611ef761164d565b5b6000611f0684828501611ecd565b91505092915050565b7f496e73756666696369656e742062616c616e6365000000000000000000000000600082015250565b6000611f45601483611739565b9150611f5082611f0f565b602082019050919050565b60006020820190508181036000830152611f7481611f38565b9050919050565b6000606082019050611f90600083018661171b565b611f9d602083018561171b565b611faa6040830184611364565b949350505050565b600081519050611fc181611927565b92915050565b600060208284031215611fdd57611fdc61164d565b5b6000611feb84828501611fb2565b91505092915050565b6000611fff8261135a565b915061200a8361135a565b925082820390508181111561202257612021611a06565b5b92915050565b7f4e487b7100000000000000000000000000000000000000000000000000000000600052601260045260246000fd5b60006120628261135a565b915061206d8361135a565b92508261207d5761207c612028565b5b828204905092915050565b60006120938261135a565b915061209e8361135a565b92508282026120ac8161135a565b915082820484148315176120c3576120c2611a06565b5b5092915050565b60006080820190506120df6000830187611364565b6120ec6020830186611364565b6120f9604083018561171b565b612106606083018461171b565b95945050505050565b7f50726963652073686f756c642062652067726561746572207468616e20300000600082015250565b6000612145601e83611739565b91506121508261210f565b602082019050919050565b6000602082019050818103600083015261217481612138565b9050919050565b60006060820190506121906000830186611364565b61219d6020830185611364565b6121aa604083018461171b565b949350505050565b60006040820190506121c76000830185611364565b6121d4602083018461171b565b939250505056fea264697066735822122075ad1626ab59386ba23c53c1f5a848c16534ff8890daba932c5730480f32181064736f6c6343000814003360806040526000600355600060045560006005553480156200002057600080fd5b5060405162001bd138038062001bd18339818101604052810190620000469190620002ac565b826006908162000057919062000591565b50816007908162000069919062000591565b5080600860006101000a81548173ffffffffffffffffffffffffffffffffffffffff021916908373ffffffffffffffffffffffffffffffffffffffff16021790555050505062000678565b6000604051905090565b600080fd5b600080fd5b600080fd5b600080fd5b6000601f19601f8301169050919050565b7f4e487b7100000000000000000000000000000000000000000000000000000000600052604160045260246000fd5b6200011d82620000d2565b810181811067ffffffffffffffff821117156200013f576200013e620000e3565b5b80604052505050565b600062000154620000b4565b905062000162828262000112565b919050565b600067ffffffffffffffff821115620001855762000184620000e3565b5b6200019082620000d2565b9050602081019050919050565b60005b83811015620001bd578082015181840152602081019050620001a0565b60008484015250505050565b6000620001e0620001da8462000167565b62000148565b905082815260208101848484011115620001ff57620001fe620000cd565b5b6200020c8482856200019d565b509392505050565b600082601f8301126200022c576200022b620000c8565b5b81516200023e848260208601620001c9565b91505092915050565b600073ffffffffffffffffffffffffffffffffffffffff82169050919050565b6000620002748262000247565b9050919050565b620002868162000267565b81146200029257600080fd5b50565b600081519050620002a6816200027b565b92915050565b600080600060608486031215620002c857620002c7620000be565b5b600084015167ffffffffffffffff811115620002e957620002e8620000c3565b5b620002f78682870162000214565b935050602084015167ffffffffffffffff8111156200031b576200031a620000c3565b5b620003298682870162000214565b92505060406200033c8682870162000295565b9150509250925092565b600081519050919050565b7f4e487b7100000000000000000000000000000000000000000000000000000000600052602260045260246000fd5b600060028204905060018216806200039957607f821691505b602082108103620003af57620003ae62000351565b5b50919050565b60008190508160005260206000209050919050565b60006020601f8301049050919050565b600082821b905092915050565b600060088302620004197fffffffffffffffffffffffffffffffffffffffffffffffffffffffffffffffff82620003da565b620004258683620003da565b95508019841693508086168417925050509392505050565b6000819050919050565b6000819050919050565b6000620004726200046c62000466846200043d565b62000447565b6200043d565b9050919050565b6000819050919050565b6200048e8362000451565b620004a66200049d8262000479565b848454620003e7565b825550505050565b600090565b620004bd620004ae565b620004ca81848462000483565b505050565b5b81811015620004f257620004e6600082620004b3565b600181019050620004d0565b5050565b601f82111562000541576200050b81620003b5565b6200051684620003ca565b8101602085101562000526578190505b6200053e6200053585620003ca565b830182620004cf565b50505b505050565b600082821c905092915050565b6000620005666000198460080262000546565b1980831691505092915050565b600062000581838362000553565b9150826002028217905092915050565b6200059c8262000346565b67ffffffffffffffff811115620005b857620005b7620000e3565b5b620005c4825462000380565b620005d1828285620004f6565b600060209050601f831160018114620006095760008415620005f4578287015190505b62000600858262000573565b86555062000670565b601f1984166200061986620003b5565b60005b8281101562000643578489015182556001820191506020850194506020810190506200061c565b868310156200066357848901516200065f601f89168262000553565b8355505b6001600288020188555050505b505050505050565b61154980620006886000396000f3fe6080604052600436106100ec5760003560e01c80632c15665f1161008a57806395d89b411161005957806395d89b4114610330578063a0712d681461035b578063a9059cbb1461038b578063dd62ed3e146103c8576100f3565b80632c15665f1461026d57806351c6590a146102aa5780638da5cb5b146102da578063954d758914610305576100f3565b806315770f92116100c657806315770f921461019d57806318160ddd146101c857806323b872dd146101f357806327e235e314610230576100f3565b8063054d50d4146100f857806306fdde0314610135578063095ea7b314610160576100f3565b366100f357005b600080fd5b34801561010457600080fd5b5061011f600480360381019061011a9190610e1b565b610405565b60405161012c9190610e7d565b60405180910390f35b34801561014157600080fd5b5061014a6104c3565b6040516101579190610f28565b60405180910390f35b34801561016c57600080fd5b5061018760048036038101906101829190610fa8565b610551565b6040516101949190611003565b60405180910390f35b3480156101a957600080fd5b506101b26105de565b6040516101bf9190610e7d565b60405180910390f35b3480156101d457600080fd5b506101dd6105e4565b6040516101ea9190610e7d565b60405180910390f35b3480156101ff57600080fd5b5061021a6004803603810190610215919061101e565b6105ea565b6040516102279190611003565b60405180910390f35b34801561023c57600080fd5b5061025760048036038101906102529190611071565b610706565b6040516102649190610e7d565b60405180910390f35b34801561027957600080fd5b50610294600480360381019061028f9190611071565b61071e565b6040516102a19190610e7d565b60405180910390f35b6102c460048036038101906102bf919061109e565b610736565b6040516102d19190610e7d565b60405180910390f35b3480156102e657600080fd5b506102ef6109b4565b6040516102fc91906110da565b60405180910390f35b34801561031157600080fd5b5061031a6109da565b6040516103279190610e7d565b60405180910390f35b34801561033c57600080fd5b506103456109e0565b6040516103529190610f28565b60405180910390f35b6103756004803603810190610370919061109e565b610a6e565b6040516103829190610e7d565b60405180910390f35b34801561039757600080fd5b506103b260048036038101906103ad9190610fa8565b610c0d565b6040516103bf9190611003565b60405180910390f35b3480156103d457600080fd5b506103ef60048036038101906103ea91906110f5565b610d28565b6040516103fc9190610e7d565b60405180910390f35b6000808411610449576040517f08c379a000000000000000000000000000000000000000000000000000000000815260040161044090611181565b60405180910390fd5b6000831180156104595750600082115b610498576040517f08c379a000000000000000000000000000000000000000000000000000000000815260040161048f906111ed565b60405180910390fd5b83836104a4919061123c565b82856104b09190611270565b6104ba91906112e1565b90509392505050565b600680546104d090611341565b80601f01602080910402602001604051908101604052809291908181526020018280546104fc90611341565b80156105495780601f1061051e57610100808354040283529160200191610549565b820191906000526020600020905b81548152906001019060200180831161052c57829003601f168201915b505050505081565b600081600260003373ffffffffffffffffffffffffffffffffffffffff1673ffffffffffffffffffffffffffffffffffffffff16815260200190815260200160002060008573ffffffffffffffffffffffffffffffffffffffff1673ffffffffffffffffffffffffffffffffffffffff168152602001908152602001600020819055506001905092915050565b60055481565b60035481565b6000816000808673ffffffffffffffffffffffffffffffffffffffff1673ffffffffffffffffffffffffffffffffffffffff168152602001908152602001600020600082825461063a9190611372565b92505081905550816000808573ffffffffffffffffffffffffffffffffffffffff1673ffffffffffffffffffffffffffffffffffffffff168152602001908152602001600020600082825461068f919061123c565b925050819055508273ffffffffffffffffffffffffffffffffffffffff168473ffffffffffffffffffffffffffffffffffffffff167fddf252ad1be2c89b69c2b068fc378daa952ba7f163c4a11628f55a4df523b3ef846040516106f39190610e7d565b60405180910390a3600190509392505050565b60006020528060005260406000206000915090505481565b60016020528060005260406000206000915090505481565b6000600860009054906101000a900473ffffffffffffffffffffffffffffffffffffffff1673ffffffffffffffffffffffffffffffffffffffff163373ffffffffffffffffffffffffffffffffffffffff16146107c8576040517f08c379a00000000000000000000000000000000000000000000000000000000081526004016107bf906113f2565b60405180910390fd5b60003490503073ffffffffffffffffffffffffffffffffffffffff166108fc829081150290604051600060405180830381858888f19350505050158015610813573d6000803e3d6000fd5b5060006005540361083957610832818461082d9190611270565b610d4d565b915061087a565b6108776003546005548561084d9190611270565b61085791906112e1565b600454600554846108689190611270565b61087291906112e1565b610dc7565b91505b600082116108bd576040517f08c379a00000000000000000000000000000000000000000000000000000000081526004016108b49061145e565b60405180910390fd5b82600360008282546108cf919061123c565b9250508190555080600460008282546108e8919061123c565b925050819055508160056000828254610901919061123c565b9250508190555081600160003373ffffffffffffffffffffffffffffffffffffffff1673ffffffffffffffffffffffffffffffffffffffff1681526020019081526020016000206000828254610957919061123c565b925050819055503373ffffffffffffffffffffffffffffffffffffffff167f06239653922ac7bea6aa2b19dc486b9361821d37712eb796adfd38d81de278ca84836040516109a692919061147e565b60405180910390a250919050565b600860009054906101000a900473ffffffffffffffffffffffffffffffffffffffff1681565b60045481565b600780546109ed90611341565b80601f0160208091040260200160405190810160405280929190818152602001828054610a1990611341565b8015610a665780601f10610a3b57610100808354040283529160200191610a66565b820191906000526020600020905b815481529060010190602001808311610a4957829003601f168201915b505050505081565b6000803490506000600454905060006003549050610a8d838383610405565b9350848411610ad1576040517f08c379a0000000000000000000000000000000000000000000000000000000008152600401610ac8906114f3565b60405180910390fd5b3073ffffffffffffffffffffffffffffffffffffffff166108fc849081150290604051600060405180830381858888f19350505050158015610b17573d6000803e3d6000fd5b508260046000828254610b2a919061123c565b92505081905550836000803373ffffffffffffffffffffffffffffffffffffffff1673ffffffffffffffffffffffffffffffffffffffff1681526020019081526020016000206000828254610b7f919061123c565b925050819055508360036000828254610b98919061123c565b925050819055503373ffffffffffffffffffffffffffffffffffffffff16600073ffffffffffffffffffffffffffffffffffffffff167fddf252ad1be2c89b69c2b068fc378daa952ba7f163c4a11628f55a4df523b3ef86604051610bfd9190610e7d565b60405180910390a3505050919050565b6000816000803373ffffffffffffffffffffffffffffffffffffffff1673ffffffffffffffffffffffffffffffffffffffff1681526020019081526020016000206000828254610c5d9190611372565b92505081905550816000808573ffffffffffffffffffffffffffffffffffffffff1673ffffffffffffffffffffffffffffffffffffffff1681526020019081526020016000206000828254610cb2919061123c565b925050819055508273ffffffffffffffffffffffffffffffffffffffff163373ffffffffffffffffffffffffffffffffffffffff167fddf252ad1be2c89b69c2b068fc378daa952ba7f163c4a11628f55a4df523b3ef84604051610d169190610e7d565b60405180910390a36001905092915050565b6002602052816000526040600020602052806000526040600020600091509150505481565b60006003821115610db45781905060006001600284610d6c91906112e1565b610d76919061123c565b90505b81811015610dae578091506002818285610d9391906112e1565b610d9d919061123c565b610da791906112e1565b9050610d79565b50610dc2565b60008214610dc157600190505b5b919050565b6000818310610dd65781610dd8565b825b905092915050565b600080fd5b6000819050919050565b610df881610de5565b8114610e0357600080fd5b50565b600081359050610e1581610def565b92915050565b600080600060608486031215610e3457610e33610de0565b5b6000610e4286828701610e06565b9350506020610e5386828701610e06565b9250506040610e6486828701610e06565b9150509250925092565b610e7781610de5565b82525050565b6000602082019050610e926000830184610e6e565b92915050565b600081519050919050565b600082825260208201905092915050565b60005b83811015610ed2578082015181840152602081019050610eb7565b60008484015250505050565b6000601f19601f8301169050919050565b6000610efa82610e98565b610f048185610ea3565b9350610f14818560208601610eb4565b610f1d81610ede565b840191505092915050565b60006020820190508181036000830152610f428184610eef565b905092915050565b600073ffffffffffffffffffffffffffffffffffffffff82169050919050565b6000610f7582610f4a565b9050919050565b610f8581610f6a565b8114610f9057600080fd5b50565b600081359050610fa281610f7c565b92915050565b60008060408385031215610fbf57610fbe610de0565b5b6000610fcd85828601610f93565b9250506020610fde85828601610e06565b9150509250929050565b60008115159050919050565b610ffd81610fe8565b82525050565b60006020820190506110186000830184610ff4565b92915050565b60008060006060848603121561103757611036610de0565b5b600061104586828701610f93565b935050602061105686828701610f93565b925050604061106786828701610e06565b9150509250925092565b60006020828403121561108757611086610de0565b5b600061109584828501610f93565b91505092915050565b6000602082840312156110b4576110b3610de0565b5b60006110c284828501610e06565b91505092915050565b6110d481610f6a565b82525050565b60006020820190506110ef60008301846110cb565b92915050565b6000806040838503121561110c5761110b610de0565b5b600061111a85828601610f93565b925050602061112b85828601610f93565b9150509250929050565b7f494e53554646494349454e545f414d4f554e5400000000000000000000000000600082015250565b600061116b601383610ea3565b915061117682611135565b602082019050919050565b6000602082019050818103600083015261119a8161115e565b9050919050565b7f494e53554646494349454e545f4c495155494449545900000000000000000000600082015250565b60006111d7601683610ea3565b91506111e2826111a1565b602082019050919050565b60006020820190508181036000830152611206816111ca565b9050919050565b7f4e487b7100000000000000000000000000000000000000000000000000000000600052601160045260246000fd5b600061124782610de5565b915061125283610de5565b925082820190508082111561126a5761126961120d565b5b92915050565b600061127b82610de5565b915061128683610de5565b925082820261129481610de5565b915082820484148315176112ab576112aa61120d565b5b5092915050565b7f4e487b7100000000000000000000000000000000000000000000000000000000600052601260045260246000fd5b60006112ec82610de5565b91506112f783610de5565b925082611307576113066112b2565b5b828204905092915050565b7f4e487b7100000000000000000000000000000000000000000000000000000000600052602260045260246000fd5b6000600282049050600182168061135957607f821691505b60208210810361136c5761136b611312565b5b50919050565b600061137d82610de5565b915061138883610de5565b92508282039050818111156113a05761139f61120d565b5b92915050565b7f4f6e6c79206f776e65722063616e20616464206c697175696469747900000000600082015250565b60006113dc601c83610ea3565b91506113e7826113a6565b602082019050919050565b6000602082019050818103600083015261140b816113cf565b9050919050565b7f496e73756666696369656e74206c697175696469747900000000000000000000600082015250565b6000611448601683610ea3565b915061145382611412565b602082019050919050565b600060208201905081810360008301526114778161143b565b9050919050565b60006040820190506114936000830185610e6e565b6114a06020830184610e6e565b9392505050565b7f696e73756666696369656e74206f757470757420616d6f756e74000000000000600082015250565b60006114dd601a83610ea3565b91506114e8826114a7565b602082019050919050565b6000602082019050818103600083015261150c816114d0565b905091905056fea2646970667358221220c8f15c3b54f0a6848e75029f45b95533712a8ee691d3a54dffdcb30970355d0f64736f6c63430008140033",
  "linkReferences": {},
  "deployedLinkReferences": {}
}