{
  "_format": "hh-sol-artifact-1",
  "contractName": "BuyMyRoom",
  "sourceName": "contracts/BuyMyRoom.sol",
  "abi": [
    {
      "inputs": [],
      "stateMutability": "nonpayable",
      "type": "constructor"
    },
    {
      "anonymous": false,
      "inputs": [
        {
          "indexed": false,
          "internalType": "uint256",
          "name": "tokenId",
          "type": "uint256"
        },
        {
          "indexed": false,
          "internalType": "uint256",
          "name": "price",
          "type": "uint256"
        },
        {
          "indexed": false,
          "internalType": "address",
          "name": "owner",
          "type": "address"
        }
      ],
      "name": "HouseListed",
      "type": "event"
    },
    {
      "anonymous": false,
      "inputs": [
        {
          "indexed": false,
          "internalType": "uint256",
          "name": "tokenId",
          "type": "uint256"
        },
        {
          "indexed": false,
          "internalType": "uint256",
          "name": "price",
          "type": "uint256"
        },
        {
          "indexed": false,
          "internalType": "address",
          "name": "buyer",
          "type": "address"
        },
        {
          "indexed": false,
          "internalType": "address",
          "name": "seller",
          "type": "address"
        }
      ],
      "name": "HouseSold",
      "type": "event"
    },
    {
      "anonymous": false,
      "inputs": [
        {
          "indexed": false,
          "internalType": "uint256",
          "name": "tokenId",
          "type": "uint256"
        },
        {
          "indexed": false,
          "internalType": "address",
          "name": "owner",
          "type": "address"
        }
      ],
      "name": "HouseUnlisted",
      "type": "event"
    },
    {
      "inputs": [
        {
          "internalType": "uint256",
          "name": "tokenId",
          "type": "uint256"
        }
      ],
      "name": "buyHouse",
      "outputs": [],
      "stateMutability": "nonpayable",
      "type": "function"
    },
    {
      "inputs": [],
      "name": "getAllListedHouses",
      "outputs": [
        {
          "components": [
            {
              "internalType": "uint256",
              "name": "id",
              "type": "uint256"
            },
            {
              "internalType": "string",
              "name": "name",
              "type": "string"
            },
            {
              "internalType": "string",
              "name": "description",
              "type": "string"
            },
            {
              "internalType": "uint256",
              "name": "price",
              "type": "uint256"
            },
            {
              "internalType": "bool",
              "name": "isListed",
              "type": "bool"
            }
          ],
          "internalType": "struct BuyMyRoom.HouseInfo[]",
          "name": "",
          "type": "tuple[]"
        }
      ],
      "stateMutability": "view",
      "type": "function"
    },
    {
      "inputs": [
        {
          "internalType": "address",
          "name": "user",
          "type": "address"
        }
      ],
      "name": "getUserHouses",
      "outputs": [
        {
          "components": [
            {
              "internalType": "uint256",
              "name": "id",
              "type": "uint256"
            },
            {
              "internalType": "string",
              "name": "name",
              "type": "string"
            },
            {
              "internalType": "string",
              "name": "description",
              "type": "string"
            },
            {
              "internalType": "uint256",
              "name": "price",
              "type": "uint256"
            },
            {
              "internalType": "bool",
              "name": "isListed",
              "type": "bool"
            }
          ],
          "internalType": "struct BuyMyRoom.HouseInfo[]",
          "name": "",
          "type": "tuple[]"
        }
      ],
      "stateMutability": "view",
      "type": "function"
    },
    {
      "inputs": [
        {
          "internalType": "uint256",
          "name": "",
          "type": "uint256"
        }
      ],
      "name": "houses",
      "outputs": [
        {
          "internalType": "address",
          "name": "owner",
          "type": "address"
        },
        {
          "internalType": "uint256",
          "name": "listedTimestamp",
          "type": "uint256"
        },
        {
          "internalType": "bool",
          "name": "isListed",
          "type": "bool"
        },
        {
          "internalType": "string",
          "name": "name",
          "type": "string"
        },
        {
          "internalType": "string",
          "name": "description",
          "type": "string"
        },
        {
          "internalType": "uint256",
          "name": "price",
          "type": "uint256"
        }
      ],
      "stateMutability": "view",
      "type": "function"
    },
    {
      "inputs": [],
      "name": "myERC20",
      "outputs": [
        {
          "internalType": "contract MyERC20",
          "name": "",
          "type": "address"
        }
      ],
      "stateMutability": "view",
      "type": "function"
    },
    {
      "inputs": [],
      "name": "totalHouse",
      "outputs": [
        {
          "internalType": "uint256",
          "name": "",
          "type": "uint256"
        }
      ],
      "stateMutability": "view",
      "type": "function"
    },
    {
      "inputs": [
        {
          "internalType": "uint256",
          "name": "tokenId",
          "type": "uint256"
        },
        {
          "internalType": "string",
          "name": "name",
          "type": "string"
        },
        {
          "internalType": "string",
          "name": "description",
          "type": "string"
        },
        {
          "internalType": "uint256",
          "name": "price",
          "type": "uint256"
        },
        {
          "internalType": "bool",
          "name": "isListed",
          "type": "bool"
        }
      ],
      "name": "updateHouseInfo",
      "outputs": [],
      "stateMutability": "nonpayable",
      "type": "function"
    }
  ],
  "bytecode": "0x6080604052600080553480156200001557600080fd5b50336040516200002590620002fe565b62000031919062000402565b604051809103906000f0801580156200004e573d6000803e3d6000fd5b50600160006101000a81548173ffffffffffffffffffffffffffffffffffffffff021916908373ffffffffffffffffffffffffffffffffffffffff16021790555033600260006101000a81548173ffffffffffffffffffffffffffffffffffffffff021916908373ffffffffffffffffffffffffffffffffffffffff1602179055506200014f60006040518060400160405280600781526020017f486f7573652031000000000000000000000000000000000000000000000000008152506040518060400160405280600d81526020017f4465736372697074696f6e20310000000000000000000000000000000000000081525033620001d460201b60201c565b620001ce60016040518060400160405280600781526020017f486f7573652032000000000000000000000000000000000000000000000000008152506040518060400160405280600d81526020017f4465736372697074696f6e20320000000000000000000000000000000000000081525033620001d460201b60201c565b62000814565b6001600080828254620001e8919062000482565b925050819055506040518060c001604052808273ffffffffffffffffffffffffffffffffffffffff1681526020016000815260200160001515815260200184815260200183815260200160008152506003600086815260200190815260200160002060008201518160000160006101000a81548173ffffffffffffffffffffffffffffffffffffffff021916908373ffffffffffffffffffffffffffffffffffffffff1602179055506020820151816001015560408201518160020160006101000a81548160ff0219169083151502179055506060820151816003019081620002d291906200072d565b506080820151816004019081620002ea91906200072d565b5060a0820151816005015590505050505050565b611bd18062002a2983390190565b600082825260208201905092915050565b7f4d79455243323000000000000000000000000000000000000000000000000000600082015250565b6000620003556007836200030c565b915062000362826200031d565b602082019050919050565b7f4d59540000000000000000000000000000000000000000000000000000000000600082015250565b6000620003a56003836200030c565b9150620003b2826200036d565b602082019050919050565b600073ffffffffffffffffffffffffffffffffffffffff82169050919050565b6000620003ea82620003bd565b9050919050565b620003fc81620003dd565b82525050565b600060608201905081810360008301526200041d8162000346565b90508181036020830152620004328162000396565b9050620004436040830184620003f1565b92915050565b6000819050919050565b7f4e487b7100000000000000000000000000000000000000000000000000000000600052601160045260246000fd5b60006200048f8262000449565b91506200049c8362000449565b9250828201905080821115620004b757620004b662000453565b5b92915050565b600081519050919050565b7f4e487b7100000000000000000000000000000000000000000000000000000000600052604160045260246000fd5b7f4e487b7100000000000000000000000000000000000000000000000000000000600052602260045260246000fd5b600060028204905060018216806200053f57607f821691505b602082108103620005555762000554620004f7565b5b50919050565b60008190508160005260206000209050919050565b60006020601f8301049050919050565b600082821b905092915050565b600060088302620005bf7fffffffffffffffffffffffffffffffffffffffffffffffffffffffffffffffff8262000580565b620005cb868362000580565b95508019841693508086168417925050509392505050565b6000819050919050565b60006200060e62000608620006028462000449565b620005e3565b62000449565b9050919050565b6000819050919050565b6200062a83620005ed565b62000642620006398262000615565b8484546200058d565b825550505050565b600090565b620006596200064a565b620006668184846200061f565b505050565b5b818110156200068e57620006826000826200064f565b6001810190506200066c565b5050565b601f821115620006dd57620006a7816200055b565b620006b28462000570565b81016020851015620006c2578190505b620006da620006d18562000570565b8301826200066b565b50505b505050565b600082821c905092915050565b60006200070260001984600802620006e2565b1980831691505092915050565b60006200071d8383620006ef565b9150826002028217905092915050565b6200073882620004bd565b67ffffffffffffffff811115620007545762000753620004c8565b5b62000760825462000526565b6200076d82828562000692565b600060209050601f831160018114620007a5576000841562000790578287015190505b6200079c85826200070f565b8655506200080c565b601f198416620007b5866200055b565b60005b82811015620007df57848901518255600182019150602085019450602081019050620007b8565b86831015620007ff5784890151620007fb601f891682620006ef565b8355505b6001600288020188555050505b505050505050565b61220580620008246000396000f3fe608060405234801561001057600080fd5b506004361061007d5760003560e01c80639e407d201161005b5780639e407d20146100dc578063aeda852f1461010c578063c77c6d9914610141578063eddc42691461015d5761007d565b806339f68888146100825780636d3739c4146100a0578063819782b3146100be575b600080fd5b61008a610179565b6040516100979190611367565b60405180910390f35b6100a861017f565b6040516100b59190611401565b60405180910390f35b6100c66101a5565b6040516100d39190611615565b60405180910390f35b6100f660048036038101906100f19190611689565b6104eb565b6040516101039190611615565b60405180910390f35b610126600480360381019061012191906116e2565b6108b3565b60405161013896959493929190611777565b60405180910390f35b61015b60048036038101906101569190611947565b610a2c565b005b610177600480360381019061017291906116e2565b610ba1565b005b60005481565b600160009054906101000a900473ffffffffffffffffffffffffffffffffffffffff1681565b60606000805b600054811015610201576003600082815260200190815260200160002060020160009054906101000a900460ff16156101ee576001826101eb9190611a29565b91505b80806101f990611a5d565b9150506101ab565b5060008167ffffffffffffffff81111561021e5761021d6117f0565b5b60405190808252806020026020018201604052801561025757816020015b61024461131d565b81526020019060019003908161023c5790505b5090506000805b6000548110156104e1576003600082815260200190815260200160002060020160009054906101000a900460ff16156104ce57808383815181106102a5576102a4611aa5565b5b602002602001015160000181815250506003600082815260200190815260200160002060030180546102d690611b03565b80601f016020809104026020016040519081016040528092919081815260200182805461030290611b03565b801561034f5780601f106103245761010080835404028352916020019161034f565b820191906000526020600020905b81548152906001019060200180831161033257829003601f168201915b505050505083838151811061036757610366611aa5565b5b60200260200101516020018190525060036000828152602001908152602001600020600401805461039790611b03565b80601f01602080910402602001604051908101604052809291908181526020018280546103c390611b03565b80156104105780601f106103e557610100808354040283529160200191610410565b820191906000526020600020905b8154815290600101906020018083116103f357829003601f168201915b505050505083838151811061042857610427611aa5565b5b602002602001015160400181905250600360008281526020019081526020016000206005015483838151811061046157610460611aa5565b5b602002602001015160600181815250506003600082815260200190815260200160002060020160009054906101000a900460ff168383815181106104a8576104a7611aa5565b5b602002602001015160800190151590811515815250506001826104cb9190611a29565b91505b80806104d990611a5d565b91505061025e565b5081935050505090565b60606000805b600054811015610587578373ffffffffffffffffffffffffffffffffffffffff166003600083815260200190815260200160002060000160009054906101000a900473ffffffffffffffffffffffffffffffffffffffff1673ffffffffffffffffffffffffffffffffffffffff1603610574576001826105719190611a29565b91505b808061057f90611a5d565b9150506104f1565b5060008167ffffffffffffffff8111156105a4576105a36117f0565b5b6040519080825280602002602001820160405280156105dd57816020015b6105ca61131d565b8152602001906001900390816105c25790505b5090506000805b6000548110156108a7578573ffffffffffffffffffffffffffffffffffffffff166003600083815260200190815260200160002060000160009054906101000a900473ffffffffffffffffffffffffffffffffffffffff1673ffffffffffffffffffffffffffffffffffffffff1603610894578083838151811061066b5761066a611aa5565b5b6020026020010151600001818152505060036000828152602001908152602001600020600301805461069c90611b03565b80601f01602080910402602001604051908101604052809291908181526020018280546106c890611b03565b80156107155780601f106106ea57610100808354040283529160200191610715565b820191906000526020600020905b8154815290600101906020018083116106f857829003601f168201915b505050505083838151811061072d5761072c611aa5565b5b60200260200101516020018190525060036000828152602001908152602001600020600401805461075d90611b03565b80601f016020809104026020016040519081016040528092919081815260200182805461078990611b03565b80156107d65780601f106107ab576101008083540402835291602001916107d6565b820191906000526020600020905b8154815290600101906020018083116107b957829003601f168201915b50505050508383815181106107ee576107ed611aa5565b5b602002602001015160400181905250600360008281526020019081526020016000206005015483838151811061082757610826611aa5565b5b602002602001015160600181815250506003600082815260200190815260200160002060020160009054906101000a900460ff1683838151811061086e5761086d611aa5565b5b602002602001015160800190151590811515815250506001826108919190611a29565b91505b808061089f90611a5d565b9150506105e4565b50819350505050919050565b60036020528060005260406000206000915090508060000160009054906101000a900473ffffffffffffffffffffffffffffffffffffffff16908060010154908060020160009054906101000a900460ff169080600301805461091590611b03565b80601f016020809104026020016040519081016040528092919081815260200182805461094190611b03565b801561098e5780601f106109635761010080835404028352916020019161098e565b820191906000526020600020905b81548152906001019060200180831161097157829003601f168201915b5050505050908060040180546109a390611b03565b80601f01602080910402602001604051908101604052809291908181526020018280546109cf90611b03565b8015610a1c5780601f106109f157610100808354040283529160200191610a1c565b820191906000526020600020905b8154815290600101906020018083116109ff57829003601f168201915b5050505050908060050154905086565b843373ffffffffffffffffffffffffffffffffffffffff166003600083815260200190815260200160002060000160009054906101000a900473ffffffffffffffffffffffffffffffffffffffff1673ffffffffffffffffffffffffffffffffffffffff1614610ad1576040517f08c379a0000000000000000000000000000000000000000000000000000000008152600401610ac890611ba6565b60405180910390fd5b818015610aff57506003600087815260200190815260200160002060020160009054906101000a900460ff16155b15610b1357610b0e8684610ffe565b610b51565b81158015610b4157506003600087815260200190815260200160002060020160009054906101000a900460ff165b15610b5057610b4f8661118b565b5b5b84600360008881526020019081526020016000206003019081610b749190611d68565b5083600360008881526020019081526020016000206004019081610b989190611d68565b50505050505050565b806003600082815260200190815260200160002060020160009054906101000a900460ff16610c05576040517f08c379a0000000000000000000000000000000000000000000000000000000008152600401610bfc90611e86565b60405180910390fd5b6003600083815260200190815260200160002060050154600160009054906101000a900473ffffffffffffffffffffffffffffffffffffffff1673ffffffffffffffffffffffffffffffffffffffff166327e235e3336040518263ffffffff1660e01b8152600401610c779190611ea6565b602060405180830381865afa158015610c94573d6000803e3d6000fd5b505050506040513d601f19601f82011682018060405250810190610cb89190611ed6565b1015610cf9576040517f08c379a0000000000000000000000000000000000000000000000000000000008152600401610cf090611f4f565b60405180910390fd5b60006003600084815260200190815260200160002060000160009054906101000a900473ffffffffffffffffffffffffffffffffffffffff169050600160009054906101000a900473ffffffffffffffffffffffffffffffffffffffff1673ffffffffffffffffffffffffffffffffffffffff166323b872dd338360036000888152602001908152602001600020600501546040518463ffffffff1660e01b8152600401610da993929190611f6f565b6020604051808303816000875af1158015610dc8573d6000803e3d6000fd5b505050506040513d601f19601f82011682018060405250810190610dec9190611fbb565b50600060646003600086815260200190815260200160002060050154600360008781526020019081526020016000206001015442610e2a9190611fe8565b610e34919061201c565b610e3e919061208d565b9050600160009054906101000a900473ffffffffffffffffffffffffffffffffffffffff1673ffffffffffffffffffffffffffffffffffffffff166323b872dd33600260009054906101000a900473ffffffffffffffffffffffffffffffffffffffff16846040518463ffffffff1660e01b8152600401610ec193929190611f6f565b6020604051808303816000875af1158015610ee0573d6000803e3d6000fd5b505050506040513d601f19601f82011682018060405250810190610f049190611fbb565b50336003600086815260200190815260200160002060000160006101000a81548173ffffffffffffffffffffffffffffffffffffffff021916908373ffffffffffffffffffffffffffffffffffffffff16021790555060006003600086815260200190815260200160002060020160006101000a81548160ff021916908315150217905550600060036000868152602001908152602001600020600501819055507f6fd7da1e5aabdf035f2d60271746b8b696eca06faba052c2331da059aaf9419a8460036000878152602001908152602001600020600501543385604051610ff094939291906120be565b60405180910390a150505050565b813373ffffffffffffffffffffffffffffffffffffffff166003600083815260200190815260200160002060000160009054906101000a900473ffffffffffffffffffffffffffffffffffffffff1673ffffffffffffffffffffffffffffffffffffffff16146110a3576040517f08c379a000000000000000000000000000000000000000000000000000000000815260040161109a90611ba6565b60405180910390fd5b600082116110e6576040517f08c379a00000000000000000000000000000000000000000000000000000000081526004016110dd9061214f565b60405180910390fd5b60016003600085815260200190815260200160002060020160006101000a81548160ff0219169083151502179055504260036000858152602001908152602001600020600101819055508160036000858152602001908152602001600020600501819055507f60b3e540896cf4a419e7b7274a1f1282223f5d92ca6f0152cf820fe457fb484383833360405161117e9392919061216f565b60405180910390a1505050565b803373ffffffffffffffffffffffffffffffffffffffff166003600083815260200190815260200160002060000160009054906101000a900473ffffffffffffffffffffffffffffffffffffffff1673ffffffffffffffffffffffffffffffffffffffff1614611230576040517f08c379a000000000000000000000000000000000000000000000000000000000815260040161122790611ba6565b60405180910390fd5b816003600082815260200190815260200160002060020160009054906101000a900460ff16611294576040517f08c379a000000000000000000000000000000000000000000000000000000000815260040161128b90611e86565b60405180910390fd5b60006003600085815260200190815260200160002060020160006101000a81548160ff021916908315150217905550600060036000858152602001908152602001600020600501819055507f06e7facda0abccbe6a69ca20d4f51228acc0fe8d6074921bbb0434a14afe79e883336040516113109291906121a6565b60405180910390a1505050565b6040518060a00160405280600081526020016060815260200160608152602001600081526020016000151581525090565b6000819050919050565b6113618161134e565b82525050565b600060208201905061137c6000830184611358565b92915050565b600073ffffffffffffffffffffffffffffffffffffffff82169050919050565b6000819050919050565b60006113c76113c26113bd84611382565b6113a2565b611382565b9050919050565b60006113d9826113ac565b9050919050565b60006113eb826113ce565b9050919050565b6113fb816113e0565b82525050565b600060208201905061141660008301846113f2565b92915050565b600081519050919050565b600082825260208201905092915050565b6000819050602082019050919050565b6114518161134e565b82525050565b600081519050919050565b600082825260208201905092915050565b60005b83811015611491578082015181840152602081019050611476565b60008484015250505050565b6000601f19601f8301169050919050565b60006114b982611457565b6114c38185611462565b93506114d3818560208601611473565b6114dc8161149d565b840191505092915050565b60008115159050919050565b6114fc816114e7565b82525050565b600060a08301600083015161151a6000860182611448565b506020830151848203602086015261153282826114ae565b9150506040830151848203604086015261154c82826114ae565b91505060608301516115616060860182611448565b50608083015161157460808601826114f3565b508091505092915050565b600061158b8383611502565b905092915050565b6000602082019050919050565b60006115ab8261141c565b6115b58185611427565b9350836020820285016115c785611438565b8060005b8581101561160357848403895281516115e4858261157f565b94506115ef83611593565b925060208a019950506001810190506115cb565b50829750879550505050505092915050565b6000602082019050818103600083015261162f81846115a0565b905092915050565b6000604051905090565b600080fd5b600080fd5b600061165682611382565b9050919050565b6116668161164b565b811461167157600080fd5b50565b6000813590506116838161165d565b92915050565b60006020828403121561169f5761169e611641565b5b60006116ad84828501611674565b91505092915050565b6116bf8161134e565b81146116ca57600080fd5b50565b6000813590506116dc816116b6565b92915050565b6000602082840312156116f8576116f7611641565b5b6000611706848285016116cd565b91505092915050565b6117188161164b565b82525050565b611727816114e7565b82525050565b600082825260208201905092915050565b600061174982611457565b611753818561172d565b9350611763818560208601611473565b61176c8161149d565b840191505092915050565b600060c08201905061178c600083018961170f565b6117996020830188611358565b6117a6604083018761171e565b81810360608301526117b8818661173e565b905081810360808301526117cc818561173e565b90506117db60a0830184611358565b979650505050505050565b600080fd5b600080fd5b7f4e487b7100000000000000000000000000000000000000000000000000000000600052604160045260246000fd5b6118288261149d565b810181811067ffffffffffffffff82111715611847576118466117f0565b5b80604052505050565b600061185a611637565b9050611866828261181f565b919050565b600067ffffffffffffffff821115611886576118856117f0565b5b61188f8261149d565b9050602081019050919050565b82818337600083830152505050565b60006118be6118b98461186b565b611850565b9050828152602081018484840111156118da576118d96117eb565b5b6118e584828561189c565b509392505050565b600082601f830112611902576119016117e6565b5b81356119128482602086016118ab565b91505092915050565b611924816114e7565b811461192f57600080fd5b50565b6000813590506119418161191b565b92915050565b600080600080600060a0868803121561196357611962611641565b5b6000611971888289016116cd565b955050602086013567ffffffffffffffff81111561199257611991611646565b5b61199e888289016118ed565b945050604086013567ffffffffffffffff8111156119bf576119be611646565b5b6119cb888289016118ed565b93505060606119dc888289016116cd565b92505060806119ed88828901611932565b9150509295509295909350565b7f4e487b7100000000000000000000000000000000000000000000000000000000600052601160045260246000fd5b6000611a348261134e565b9150611a3f8361134e565b9250828201905080821115611a5757611a566119fa565b5b92915050565b6000611a688261134e565b91507fffffffffffffffffffffffffffffffffffffffffffffffffffffffffffffffff8203611a9a57611a996119fa565b5b600182019050919050565b7f4e487b7100000000000000000000000000000000000000000000000000000000600052603260045260246000fd5b7f4e487b7100000000000000000000000000000000000000000000000000000000600052602260045260246000fd5b60006002820490506001821680611b1b57607f821691505b602082108103611b2e57611b2d611ad4565b5b50919050565b7f4f6e6c79206f776e65722063616e2063616c6c20746869732066756e6374696f60008201527f6e00000000000000000000000000000000000000000000000000000000000000602082015250565b6000611b9060218361172d565b9150611b9b82611b34565b604082019050919050565b60006020820190508181036000830152611bbf81611b83565b9050919050565b60008190508160005260206000209050919050565b60006020601f8301049050919050565b600082821b905092915050565b600060088302611c287fffffffffffffffffffffffffffffffffffffffffffffffffffffffffffffffff82611beb565b611c328683611beb565b95508019841693508086168417925050509392505050565b6000611c65611c60611c5b8461134e565b6113a2565b61134e565b9050919050565b6000819050919050565b611c7f83611c4a565b611c93611c8b82611c6c565b848454611bf8565b825550505050565b600090565b611ca8611c9b565b611cb3818484611c76565b505050565b5b81811015611cd757611ccc600082611ca0565b600181019050611cb9565b5050565b601f821115611d1c57611ced81611bc6565b611cf684611bdb565b81016020851015611d05578190505b611d19611d1185611bdb565b830182611cb8565b50505b505050565b600082821c905092915050565b6000611d3f60001984600802611d21565b1980831691505092915050565b6000611d588383611d2e565b9150826002028217905092915050565b611d7182611457565b67ffffffffffffffff811115611d8a57611d896117f0565b5b611d948254611b03565b611d9f828285611cdb565b600060209050601f831160018114611dd25760008415611dc0578287015190505b611dca8582611d4c565b865550611e32565b601f198416611de086611bc6565b60005b82811015611e0857848901518255600182019150602085019450602081019050611de3565b86831015611e255784890151611e21601f891682611d2e565b8355505b6001600288020188555050505b505050505050565b7f486f757365206973206e6f74206c697374656400000000000000000000000000600082015250565b6000611e7060138361172d565b9150611e7b82611e3a565b602082019050919050565b60006020820190508181036000830152611e9f81611e63565b9050919050565b6000602082019050611ebb600083018461170f565b92915050565b600081519050611ed0816116b6565b92915050565b600060208284031215611eec57611eeb611641565b5b6000611efa84828501611ec1565b91505092915050565b7f496e73756666696369656e742062616c616e6365000000000000000000000000600082015250565b6000611f3960148361172d565b9150611f4482611f03565b602082019050919050565b60006020820190508181036000830152611f6881611f2c565b9050919050565b6000606082019050611f84600083018661170f565b611f91602083018561170f565b611f9e6040830184611358565b949350505050565b600081519050611fb58161191b565b92915050565b600060208284031215611fd157611fd0611641565b5b6000611fdf84828501611fa6565b91505092915050565b6000611ff38261134e565b9150611ffe8361134e565b9250828203905081811115612016576120156119fa565b5b92915050565b60006120278261134e565b91506120328361134e565b92508282026120408161134e565b91508282048414831517612057576120566119fa565b5b5092915050565b7f4e487b7100000000000000000000000000000000000000000000000000000000600052601260045260246000fd5b60006120988261134e565b91506120a38361134e565b9250826120b3576120b261205e565b5b828204905092915050565b60006080820190506120d36000830187611358565b6120e06020830186611358565b6120ed604083018561170f565b6120fa606083018461170f565b95945050505050565b7f50726963652073686f756c642062652067726561746572207468616e20300000600082015250565b6000612139601e8361172d565b915061214482612103565b602082019050919050565b600060208201905081810360008301526121688161212c565b9050919050565b60006060820190506121846000830186611358565b6121916020830185611358565b61219e604083018461170f565b949350505050565b60006040820190506121bb6000830185611358565b6121c8602083018461170f565b939250505056fea2646970667358221220dc8c20ec2af5737737e5917f030b7e2e446b94c5f89de8cb664d1cd79810678e64736f6c6343000814003360806040526000600355600060045560006005553480156200002057600080fd5b5060405162001bd138038062001bd18339818101604052810190620000469190620002ac565b826006908162000057919062000591565b50816007908162000069919062000591565b5080600860006101000a81548173ffffffffffffffffffffffffffffffffffffffff021916908373ffffffffffffffffffffffffffffffffffffffff16021790555050505062000678565b6000604051905090565b600080fd5b600080fd5b600080fd5b600080fd5b6000601f19601f8301169050919050565b7f4e487b7100000000000000000000000000000000000000000000000000000000600052604160045260246000fd5b6200011d82620000d2565b810181811067ffffffffffffffff821117156200013f576200013e620000e3565b5b80604052505050565b600062000154620000b4565b905062000162828262000112565b919050565b600067ffffffffffffffff821115620001855762000184620000e3565b5b6200019082620000d2565b9050602081019050919050565b60005b83811015620001bd578082015181840152602081019050620001a0565b60008484015250505050565b6000620001e0620001da8462000167565b62000148565b905082815260208101848484011115620001ff57620001fe620000cd565b5b6200020c8482856200019d565b509392505050565b600082601f8301126200022c576200022b620000c8565b5b81516200023e848260208601620001c9565b91505092915050565b600073ffffffffffffffffffffffffffffffffffffffff82169050919050565b6000620002748262000247565b9050919050565b620002868162000267565b81146200029257600080fd5b50565b600081519050620002a6816200027b565b92915050565b600080600060608486031215620002c857620002c7620000be565b5b600084015167ffffffffffffffff811115620002e957620002e8620000c3565b5b620002f78682870162000214565b935050602084015167ffffffffffffffff8111156200031b576200031a620000c3565b5b620003298682870162000214565b92505060406200033c8682870162000295565b9150509250925092565b600081519050919050565b7f4e487b7100000000000000000000000000000000000000000000000000000000600052602260045260246000fd5b600060028204905060018216806200039957607f821691505b602082108103620003af57620003ae62000351565b5b50919050565b60008190508160005260206000209050919050565b60006020601f8301049050919050565b600082821b905092915050565b600060088302620004197fffffffffffffffffffffffffffffffffffffffffffffffffffffffffffffffff82620003da565b620004258683620003da565b95508019841693508086168417925050509392505050565b6000819050919050565b6000819050919050565b6000620004726200046c62000466846200043d565b62000447565b6200043d565b9050919050565b6000819050919050565b6200048e8362000451565b620004a66200049d8262000479565b848454620003e7565b825550505050565b600090565b620004bd620004ae565b620004ca81848462000483565b505050565b5b81811015620004f257620004e6600082620004b3565b600181019050620004d0565b5050565b601f82111562000541576200050b81620003b5565b6200051684620003ca565b8101602085101562000526578190505b6200053e6200053585620003ca565b830182620004cf565b50505b505050565b600082821c905092915050565b6000620005666000198460080262000546565b1980831691505092915050565b600062000581838362000553565b9150826002028217905092915050565b6200059c8262000346565b67ffffffffffffffff811115620005b857620005b7620000e3565b5b620005c4825462000380565b620005d1828285620004f6565b600060209050601f831160018114620006095760008415620005f4578287015190505b62000600858262000573565b86555062000670565b601f1984166200061986620003b5565b60005b8281101562000643578489015182556001820191506020850194506020810190506200061c565b868310156200066357848901516200065f601f89168262000553565b8355505b6001600288020188555050505b505050505050565b61154980620006886000396000f3fe6080604052600436106100ec5760003560e01c80632c15665f1161008a57806395d89b411161005957806395d89b4114610330578063a0712d681461035b578063a9059cbb1461038b578063dd62ed3e146103c8576100f3565b80632c15665f1461026d57806351c6590a146102aa5780638da5cb5b146102da578063954d758914610305576100f3565b806315770f92116100c657806315770f921461019d57806318160ddd146101c857806323b872dd146101f357806327e235e314610230576100f3565b8063054d50d4146100f857806306fdde0314610135578063095ea7b314610160576100f3565b366100f357005b600080fd5b34801561010457600080fd5b5061011f600480360381019061011a9190610e1b565b610405565b60405161012c9190610e7d565b60405180910390f35b34801561014157600080fd5b5061014a6104c3565b6040516101579190610f28565b60405180910390f35b34801561016c57600080fd5b5061018760048036038101906101829190610fa8565b610551565b6040516101949190611003565b60405180910390f35b3480156101a957600080fd5b506101b26105de565b6040516101bf9190610e7d565b60405180910390f35b3480156101d457600080fd5b506101dd6105e4565b6040516101ea9190610e7d565b60405180910390f35b3480156101ff57600080fd5b5061021a6004803603810190610215919061101e565b6105ea565b6040516102279190611003565b60405180910390f35b34801561023c57600080fd5b5061025760048036038101906102529190611071565b610706565b6040516102649190610e7d565b60405180910390f35b34801561027957600080fd5b50610294600480360381019061028f9190611071565b61071e565b6040516102a19190610e7d565b60405180910390f35b6102c460048036038101906102bf919061109e565b610736565b6040516102d19190610e7d565b60405180910390f35b3480156102e657600080fd5b506102ef6109b4565b6040516102fc91906110da565b60405180910390f35b34801561031157600080fd5b5061031a6109da565b6040516103279190610e7d565b60405180910390f35b34801561033c57600080fd5b506103456109e0565b6040516103529190610f28565b60405180910390f35b6103756004803603810190610370919061109e565b610a6e565b6040516103829190610e7d565b60405180910390f35b34801561039757600080fd5b506103b260048036038101906103ad9190610fa8565b610c0d565b6040516103bf9190611003565b60405180910390f35b3480156103d457600080fd5b506103ef60048036038101906103ea91906110f5565b610d28565b6040516103fc9190610e7d565b60405180910390f35b6000808411610449576040517f08c379a000000000000000000000000000000000000000000000000000000000815260040161044090611181565b60405180910390fd5b6000831180156104595750600082115b610498576040517f08c379a000000000000000000000000000000000000000000000000000000000815260040161048f906111ed565b60405180910390fd5b83836104a4919061123c565b82856104b09190611270565b6104ba91906112e1565b90509392505050565b600680546104d090611341565b80601f01602080910402602001604051908101604052809291908181526020018280546104fc90611341565b80156105495780601f1061051e57610100808354040283529160200191610549565b820191906000526020600020905b81548152906001019060200180831161052c57829003601f168201915b505050505081565b600081600260003373ffffffffffffffffffffffffffffffffffffffff1673ffffffffffffffffffffffffffffffffffffffff16815260200190815260200160002060008573ffffffffffffffffffffffffffffffffffffffff1673ffffffffffffffffffffffffffffffffffffffff168152602001908152602001600020819055506001905092915050565b60055481565b60035481565b6000816000808673ffffffffffffffffffffffffffffffffffffffff1673ffffffffffffffffffffffffffffffffffffffff168152602001908152602001600020600082825461063a9190611372565b92505081905550816000808573ffffffffffffffffffffffffffffffffffffffff1673ffffffffffffffffffffffffffffffffffffffff168152602001908152602001600020600082825461068f919061123c565b925050819055508273ffffffffffffffffffffffffffffffffffffffff168473ffffffffffffffffffffffffffffffffffffffff167fddf252ad1be2c89b69c2b068fc378daa952ba7f163c4a11628f55a4df523b3ef846040516106f39190610e7d565b60405180910390a3600190509392505050565b60006020528060005260406000206000915090505481565b60016020528060005260406000206000915090505481565b6000600860009054906101000a900473ffffffffffffffffffffffffffffffffffffffff1673ffffffffffffffffffffffffffffffffffffffff163373ffffffffffffffffffffffffffffffffffffffff16146107c8576040517f08c379a00000000000000000000000000000000000000000000000000000000081526004016107bf906113f2565b60405180910390fd5b60003490503073ffffffffffffffffffffffffffffffffffffffff166108fc829081150290604051600060405180830381858888f19350505050158015610813573d6000803e3d6000fd5b5060006005540361083957610832818461082d9190611270565b610d4d565b915061087a565b6108776003546005548561084d9190611270565b61085791906112e1565b600454600554846108689190611270565b61087291906112e1565b610dc7565b91505b600082116108bd576040517f08c379a00000000000000000000000000000000000000000000000000000000081526004016108b49061145e565b60405180910390fd5b82600360008282546108cf919061123c565b9250508190555080600460008282546108e8919061123c565b925050819055508160056000828254610901919061123c565b9250508190555081600160003373ffffffffffffffffffffffffffffffffffffffff1673ffffffffffffffffffffffffffffffffffffffff1681526020019081526020016000206000828254610957919061123c565b925050819055503373ffffffffffffffffffffffffffffffffffffffff167f06239653922ac7bea6aa2b19dc486b9361821d37712eb796adfd38d81de278ca84836040516109a692919061147e565b60405180910390a250919050565b600860009054906101000a900473ffffffffffffffffffffffffffffffffffffffff1681565b60045481565b600780546109ed90611341565b80601f0160208091040260200160405190810160405280929190818152602001828054610a1990611341565b8015610a665780601f10610a3b57610100808354040283529160200191610a66565b820191906000526020600020905b815481529060010190602001808311610a4957829003601f168201915b505050505081565b6000803490506000600454905060006003549050610a8d838383610405565b9350848411610ad1576040517f08c379a0000000000000000000000000000000000000000000000000000000008152600401610ac8906114f3565b60405180910390fd5b3073ffffffffffffffffffffffffffffffffffffffff166108fc849081150290604051600060405180830381858888f19350505050158015610b17573d6000803e3d6000fd5b508260046000828254610b2a919061123c565b92505081905550836000803373ffffffffffffffffffffffffffffffffffffffff1673ffffffffffffffffffffffffffffffffffffffff1681526020019081526020016000206000828254610b7f919061123c565b925050819055508360036000828254610b98919061123c565b925050819055503373ffffffffffffffffffffffffffffffffffffffff16600073ffffffffffffffffffffffffffffffffffffffff167fddf252ad1be2c89b69c2b068fc378daa952ba7f163c4a11628f55a4df523b3ef86604051610bfd9190610e7d565b60405180910390a3505050919050565b6000816000803373ffffffffffffffffffffffffffffffffffffffff1673ffffffffffffffffffffffffffffffffffffffff1681526020019081526020016000206000828254610c5d9190611372565b92505081905550816000808573ffffffffffffffffffffffffffffffffffffffff1673ffffffffffffffffffffffffffffffffffffffff1681526020019081526020016000206000828254610cb2919061123c565b925050819055508273ffffffffffffffffffffffffffffffffffffffff163373ffffffffffffffffffffffffffffffffffffffff167fddf252ad1be2c89b69c2b068fc378daa952ba7f163c4a11628f55a4df523b3ef84604051610d169190610e7d565b60405180910390a36001905092915050565b6002602052816000526040600020602052806000526040600020600091509150505481565b60006003821115610db45781905060006001600284610d6c91906112e1565b610d76919061123c565b90505b81811015610dae578091506002818285610d9391906112e1565b610d9d919061123c565b610da791906112e1565b9050610d79565b50610dc2565b60008214610dc157600190505b5b919050565b6000818310610dd65781610dd8565b825b905092915050565b600080fd5b6000819050919050565b610df881610de5565b8114610e0357600080fd5b50565b600081359050610e1581610def565b92915050565b600080600060608486031215610e3457610e33610de0565b5b6000610e4286828701610e06565b9350506020610e5386828701610e06565b9250506040610e6486828701610e06565b9150509250925092565b610e7781610de5565b82525050565b6000602082019050610e926000830184610e6e565b92915050565b600081519050919050565b600082825260208201905092915050565b60005b83811015610ed2578082015181840152602081019050610eb7565b60008484015250505050565b6000601f19601f8301169050919050565b6000610efa82610e98565b610f048185610ea3565b9350610f14818560208601610eb4565b610f1d81610ede565b840191505092915050565b60006020820190508181036000830152610f428184610eef565b905092915050565b600073ffffffffffffffffffffffffffffffffffffffff82169050919050565b6000610f7582610f4a565b9050919050565b610f8581610f6a565b8114610f9057600080fd5b50565b600081359050610fa281610f7c565b92915050565b60008060408385031215610fbf57610fbe610de0565b5b6000610fcd85828601610f93565b9250506020610fde85828601610e06565b9150509250929050565b60008115159050919050565b610ffd81610fe8565b82525050565b60006020820190506110186000830184610ff4565b92915050565b60008060006060848603121561103757611036610de0565b5b600061104586828701610f93565b935050602061105686828701610f93565b925050604061106786828701610e06565b9150509250925092565b60006020828403121561108757611086610de0565b5b600061109584828501610f93565b91505092915050565b6000602082840312156110b4576110b3610de0565b5b60006110c284828501610e06565b91505092915050565b6110d481610f6a565b82525050565b60006020820190506110ef60008301846110cb565b92915050565b6000806040838503121561110c5761110b610de0565b5b600061111a85828601610f93565b925050602061112b85828601610f93565b9150509250929050565b7f494e53554646494349454e545f414d4f554e5400000000000000000000000000600082015250565b600061116b601383610ea3565b915061117682611135565b602082019050919050565b6000602082019050818103600083015261119a8161115e565b9050919050565b7f494e53554646494349454e545f4c495155494449545900000000000000000000600082015250565b60006111d7601683610ea3565b91506111e2826111a1565b602082019050919050565b60006020820190508181036000830152611206816111ca565b9050919050565b7f4e487b7100000000000000000000000000000000000000000000000000000000600052601160045260246000fd5b600061124782610de5565b915061125283610de5565b925082820190508082111561126a5761126961120d565b5b92915050565b600061127b82610de5565b915061128683610de5565b925082820261129481610de5565b915082820484148315176112ab576112aa61120d565b5b5092915050565b7f4e487b7100000000000000000000000000000000000000000000000000000000600052601260045260246000fd5b60006112ec82610de5565b91506112f783610de5565b925082611307576113066112b2565b5b828204905092915050565b7f4e487b7100000000000000000000000000000000000000000000000000000000600052602260045260246000fd5b6000600282049050600182168061135957607f821691505b60208210810361136c5761136b611312565b5b50919050565b600061137d82610de5565b915061138883610de5565b92508282039050818111156113a05761139f61120d565b5b92915050565b7f4f6e6c79206f776e65722063616e20616464206c697175696469747900000000600082015250565b60006113dc601c83610ea3565b91506113e7826113a6565b602082019050919050565b6000602082019050818103600083015261140b816113cf565b9050919050565b7f496e73756666696369656e74206c697175696469747900000000000000000000600082015250565b6000611448601683610ea3565b915061145382611412565b602082019050919050565b600060208201905081810360008301526114778161143b565b9050919050565b60006040820190506114936000830185610e6e565b6114a06020830184610e6e565b9392505050565b7f696e73756666696369656e74206f757470757420616d6f756e74000000000000600082015250565b60006114dd601a83610ea3565b91506114e8826114a7565b602082019050919050565b6000602082019050818103600083015261150c816114d0565b905091905056fea2646970667358221220c8f15c3b54f0a6848e75029f45b95533712a8ee691d3a54dffdcb30970355d0f64736f6c63430008140033",
  "linkReferences": {},
  "deployedLinkReferences": {}
}