{
  "_format": "hh-sol-artifact-1",
  "contractName": "MyERC20",
  "sourceName": "contracts/MyERC20.sol",
  "abi": [
    {
      "inputs": [
        {
          "internalType": "string",
          "name": "_name",
          "type": "string"
        },
        {
          "internalType": "string",
          "name": "_symbol",
          "type": "string"
        },
        {
          "internalType": "address",
          "name": "_owner",
          "type": "address"
        }
      ],
      "stateMutability": "nonpayable",
      "type": "constructor"
    },
    {
      "anonymous": false,
      "inputs": [
        {
          "indexed": true,
          "internalType": "address",
          "name": "from",
          "type": "address"
        },
        {
          "indexed": false,
          "internalType": "uint256",
          "name": "amount",
          "type": "uint256"
        },
        {
          "indexed": false,
          "internalType": "uint256",
          "name": "ethAmount",
          "type": "uint256"
        }
      ],
      "name": "AddLiquidity",
      "type": "event"
    },
    {
      "anonymous": false,
      "inputs": [
        {
          "indexed": true,
          "internalType": "address",
          "name": "owner",
          "type": "address"
        },
        {
          "indexed": true,
          "internalType": "address",
          "name": "spender",
          "type": "address"
        },
        {
          "indexed": false,
          "internalType": "uint256",
          "name": "value",
          "type": "uint256"
        }
      ],
      "name": "Approval",
      "type": "event"
    },
    {
      "anonymous": false,
      "inputs": [
        {
          "indexed": true,
          "internalType": "address",
          "name": "from",
          "type": "address"
        },
        {
          "indexed": true,
          "internalType": "address",
          "name": "to",
          "type": "address"
        },
        {
          "indexed": false,
          "internalType": "uint256",
          "name": "value",
          "type": "uint256"
        }
      ],
      "name": "Transfer",
      "type": "event"
    },
    {
      "inputs": [
        {
          "internalType": "uint256",
          "name": "amount",
          "type": "uint256"
        }
      ],
      "name": "addLiquidity",
      "outputs": [
        {
          "internalType": "uint256",
          "name": "liquidity",
          "type": "uint256"
        }
      ],
      "stateMutability": "payable",
      "type": "function"
    },
    {
      "inputs": [
        {
          "internalType": "address",
          "name": "",
          "type": "address"
        },
        {
          "internalType": "address",
          "name": "",
          "type": "address"
        }
      ],
      "name": "allowance",
      "outputs": [
        {
          "internalType": "uint256",
          "name": "",
          "type": "uint256"
        }
      ],
      "stateMutability": "view",
      "type": "function"
    },
    {
      "inputs": [
        {
          "internalType": "address",
          "name": "spender",
          "type": "address"
        },
        {
          "internalType": "uint256",
          "name": "amount",
          "type": "uint256"
        }
      ],
      "name": "approve",
      "outputs": [
        {
          "internalType": "bool",
          "name": "",
          "type": "bool"
        }
      ],
      "stateMutability": "nonpayable",
      "type": "function"
    },
    {
      "inputs": [
        {
          "internalType": "address",
          "name": "",
          "type": "address"
        }
      ],
      "name": "balances",
      "outputs": [
        {
          "internalType": "uint256",
          "name": "",
          "type": "uint256"
        }
      ],
      "stateMutability": "view",
      "type": "function"
    },
    {
      "inputs": [],
      "name": "ethTotalSupply",
      "outputs": [
        {
          "internalType": "uint256",
          "name": "",
          "type": "uint256"
        }
      ],
      "stateMutability": "view",
      "type": "function"
    },
    {
      "inputs": [
        {
          "internalType": "uint256",
          "name": "amountIn",
          "type": "uint256"
        },
        {
          "internalType": "uint256",
          "name": "reserveIn",
          "type": "uint256"
        },
        {
          "internalType": "uint256",
          "name": "reserveOut",
          "type": "uint256"
        }
      ],
      "name": "getAmountOut",
      "outputs": [
        {
          "internalType": "uint256",
          "name": "amountOut",
          "type": "uint256"
        }
      ],
      "stateMutability": "pure",
      "type": "function"
    },
    {
      "inputs": [
        {
          "internalType": "address",
          "name": "",
          "type": "address"
        }
      ],
      "name": "liquidityBalances",
      "outputs": [
        {
          "internalType": "uint256",
          "name": "",
          "type": "uint256"
        }
      ],
      "stateMutability": "view",
      "type": "function"
    },
    {
      "inputs": [
        {
          "internalType": "uint256",
          "name": "amountOutMin",
          "type": "uint256"
        }
      ],
      "name": "mint",
      "outputs": [
        {
          "internalType": "uint256",
          "name": "amountOut",
          "type": "uint256"
        }
      ],
      "stateMutability": "payable",
      "type": "function"
    },
    {
      "inputs": [],
      "name": "name",
      "outputs": [
        {
          "internalType": "string",
          "name": "",
          "type": "string"
        }
      ],
      "stateMutability": "view",
      "type": "function"
    },
    {
      "inputs": [],
      "name": "owner",
      "outputs": [
        {
          "internalType": "address",
          "name": "",
          "type": "address"
        }
      ],
      "stateMutability": "view",
      "type": "function"
    },
    {
      "inputs": [],
      "name": "symbol",
      "outputs": [
        {
          "internalType": "string",
          "name": "",
          "type": "string"
        }
      ],
      "stateMutability": "view",
      "type": "function"
    },
    {
      "inputs": [],
      "name": "totalLiquidity",
      "outputs": [
        {
          "internalType": "uint256",
          "name": "",
          "type": "uint256"
        }
      ],
      "stateMutability": "view",
      "type": "function"
    },
    {
      "inputs": [],
      "name": "totalSupply",
      "outputs": [
        {
          "internalType": "uint256",
          "name": "",
          "type": "uint256"
        }
      ],
      "stateMutability": "view",
      "type": "function"
    },
    {
      "inputs": [
        {
          "internalType": "address",
          "name": "recipient",
          "type": "address"
        },
        {
          "internalType": "uint256",
          "name": "amount",
          "type": "uint256"
        }
      ],
      "name": "transfer",
      "outputs": [
        {
          "internalType": "bool",
          "name": "",
          "type": "bool"
        }
      ],
      "stateMutability": "nonpayable",
      "type": "function"
    },
    {
      "inputs": [
        {
          "internalType": "address",
          "name": "sender",
          "type": "address"
        },
        {
          "internalType": "address",
          "name": "recipient",
          "type": "address"
        },
        {
          "internalType": "uint256",
          "name": "amount",
          "type": "uint256"
        }
      ],
      "name": "transferFrom",
      "outputs": [
        {
          "internalType": "bool",
          "name": "",
          "type": "bool"
        }
      ],
      "stateMutability": "nonpayable",
      "type": "function"
    },
    {
      "stateMutability": "payable",
      "type": "receive"
    }
  ],
  "bytecode": "0x60806040526000600355600060045560006005553480156200002057600080fd5b5060405162001bd138038062001bd18339818101604052810190620000469190620002ac565b826006908162000057919062000591565b50816007908162000069919062000591565b5080600860006101000a81548173ffffffffffffffffffffffffffffffffffffffff021916908373ffffffffffffffffffffffffffffffffffffffff16021790555050505062000678565b6000604051905090565b600080fd5b600080fd5b600080fd5b600080fd5b6000601f19601f8301169050919050565b7f4e487b7100000000000000000000000000000000000000000000000000000000600052604160045260246000fd5b6200011d82620000d2565b810181811067ffffffffffffffff821117156200013f576200013e620000e3565b5b80604052505050565b600062000154620000b4565b905062000162828262000112565b919050565b600067ffffffffffffffff821115620001855762000184620000e3565b5b6200019082620000d2565b9050602081019050919050565b60005b83811015620001bd578082015181840152602081019050620001a0565b60008484015250505050565b6000620001e0620001da8462000167565b62000148565b905082815260208101848484011115620001ff57620001fe620000cd565b5b6200020c8482856200019d565b509392505050565b600082601f8301126200022c576200022b620000c8565b5b81516200023e848260208601620001c9565b91505092915050565b600073ffffffffffffffffffffffffffffffffffffffff82169050919050565b6000620002748262000247565b9050919050565b620002868162000267565b81146200029257600080fd5b50565b600081519050620002a6816200027b565b92915050565b600080600060608486031215620002c857620002c7620000be565b5b600084015167ffffffffffffffff811115620002e957620002e8620000c3565b5b620002f78682870162000214565b935050602084015167ffffffffffffffff8111156200031b576200031a620000c3565b5b620003298682870162000214565b92505060406200033c8682870162000295565b9150509250925092565b600081519050919050565b7f4e487b7100000000000000000000000000000000000000000000000000000000600052602260045260246000fd5b600060028204905060018216806200039957607f821691505b602082108103620003af57620003ae62000351565b5b50919050565b60008190508160005260206000209050919050565b60006020601f8301049050919050565b600082821b905092915050565b600060088302620004197fffffffffffffffffffffffffffffffffffffffffffffffffffffffffffffffff82620003da565b620004258683620003da565b95508019841693508086168417925050509392505050565b6000819050919050565b6000819050919050565b6000620004726200046c62000466846200043d565b62000447565b6200043d565b9050919050565b6000819050919050565b6200048e8362000451565b620004a66200049d8262000479565b848454620003e7565b825550505050565b600090565b620004bd620004ae565b620004ca81848462000483565b505050565b5b81811015620004f257620004e6600082620004b3565b600181019050620004d0565b5050565b601f82111562000541576200050b81620003b5565b6200051684620003ca565b8101602085101562000526578190505b6200053e6200053585620003ca565b830182620004cf565b50505b505050565b600082821c905092915050565b6000620005666000198460080262000546565b1980831691505092915050565b600062000581838362000553565b9150826002028217905092915050565b6200059c8262000346565b67ffffffffffffffff811115620005b857620005b7620000e3565b5b620005c4825462000380565b620005d1828285620004f6565b600060209050601f831160018114620006095760008415620005f4578287015190505b62000600858262000573565b86555062000670565b601f1984166200061986620003b5565b60005b8281101562000643578489015182556001820191506020850194506020810190506200061c565b868310156200066357848901516200065f601f89168262000553565b8355505b6001600288020188555050505b505050505050565b61154980620006886000396000f3fe6080604052600436106100ec5760003560e01c80632c15665f1161008a57806395d89b411161005957806395d89b4114610330578063a0712d681461035b578063a9059cbb1461038b578063dd62ed3e146103c8576100f3565b80632c15665f1461026d57806351c6590a146102aa5780638da5cb5b146102da578063954d758914610305576100f3565b806315770f92116100c657806315770f921461019d57806318160ddd146101c857806323b872dd146101f357806327e235e314610230576100f3565b8063054d50d4146100f857806306fdde0314610135578063095ea7b314610160576100f3565b366100f357005b600080fd5b34801561010457600080fd5b5061011f600480360381019061011a9190610e1b565b610405565b60405161012c9190610e7d565b60405180910390f35b34801561014157600080fd5b5061014a6104c3565b6040516101579190610f28565b60405180910390f35b34801561016c57600080fd5b5061018760048036038101906101829190610fa8565b610551565b6040516101949190611003565b60405180910390f35b3480156101a957600080fd5b506101b26105de565b6040516101bf9190610e7d565b60405180910390f35b3480156101d457600080fd5b506101dd6105e4565b6040516101ea9190610e7d565b60405180910390f35b3480156101ff57600080fd5b5061021a6004803603810190610215919061101e565b6105ea565b6040516102279190611003565b60405180910390f35b34801561023c57600080fd5b5061025760048036038101906102529190611071565b610706565b6040516102649190610e7d565b60405180910390f35b34801561027957600080fd5b50610294600480360381019061028f9190611071565b61071e565b6040516102a19190610e7d565b60405180910390f35b6102c460048036038101906102bf919061109e565b610736565b6040516102d19190610e7d565b60405180910390f35b3480156102e657600080fd5b506102ef6109b4565b6040516102fc91906110da565b60405180910390f35b34801561031157600080fd5b5061031a6109da565b6040516103279190610e7d565b60405180910390f35b34801561033c57600080fd5b506103456109e0565b6040516103529190610f28565b60405180910390f35b6103756004803603810190610370919061109e565b610a6e565b6040516103829190610e7d565b60405180910390f35b34801561039757600080fd5b506103b260048036038101906103ad9190610fa8565b610c0d565b6040516103bf9190611003565b60405180910390f35b3480156103d457600080fd5b506103ef60048036038101906103ea91906110f5565b610d28565b6040516103fc9190610e7d565b60405180910390f35b6000808411610449576040517f08c379a000000000000000000000000000000000000000000000000000000000815260040161044090611181565b60405180910390fd5b6000831180156104595750600082115b610498576040517f08c379a000000000000000000000000000000000000000000000000000000000815260040161048f906111ed565b60405180910390fd5b83836104a4919061123c565b82856104b09190611270565b6104ba91906112e1565b90509392505050565b600680546104d090611341565b80601f01602080910402602001604051908101604052809291908181526020018280546104fc90611341565b80156105495780601f1061051e57610100808354040283529160200191610549565b820191906000526020600020905b81548152906001019060200180831161052c57829003601f168201915b505050505081565b600081600260003373ffffffffffffffffffffffffffffffffffffffff1673ffffffffffffffffffffffffffffffffffffffff16815260200190815260200160002060008573ffffffffffffffffffffffffffffffffffffffff1673ffffffffffffffffffffffffffffffffffffffff168152602001908152602001600020819055506001905092915050565b60055481565b60035481565b6000816000808673ffffffffffffffffffffffffffffffffffffffff1673ffffffffffffffffffffffffffffffffffffffff168152602001908152602001600020600082825461063a9190611372565b92505081905550816000808573ffffffffffffffffffffffffffffffffffffffff1673ffffffffffffffffffffffffffffffffffffffff168152602001908152602001600020600082825461068f919061123c565b925050819055508273ffffffffffffffffffffffffffffffffffffffff168473ffffffffffffffffffffffffffffffffffffffff167fddf252ad1be2c89b69c2b068fc378daa952ba7f163c4a11628f55a4df523b3ef846040516106f39190610e7d565b60405180910390a3600190509392505050565b60006020528060005260406000206000915090505481565b60016020528060005260406000206000915090505481565b6000600860009054906101000a900473ffffffffffffffffffffffffffffffffffffffff1673ffffffffffffffffffffffffffffffffffffffff163373ffffffffffffffffffffffffffffffffffffffff16146107c8576040517f08c379a00000000000000000000000000000000000000000000000000000000081526004016107bf906113f2565b60405180910390fd5b60003490503073ffffffffffffffffffffffffffffffffffffffff166108fc829081150290604051600060405180830381858888f19350505050158015610813573d6000803e3d6000fd5b5060006005540361083957610832818461082d9190611270565b610d4d565b915061087a565b6108776003546005548561084d9190611270565b61085791906112e1565b600454600554846108689190611270565b61087291906112e1565b610dc7565b91505b600082116108bd576040517f08c379a00000000000000000000000000000000000000000000000000000000081526004016108b49061145e565b60405180910390fd5b82600360008282546108cf919061123c565b9250508190555080600460008282546108e8919061123c565b925050819055508160056000828254610901919061123c565b9250508190555081600160003373ffffffffffffffffffffffffffffffffffffffff1673ffffffffffffffffffffffffffffffffffffffff1681526020019081526020016000206000828254610957919061123c565b925050819055503373ffffffffffffffffffffffffffffffffffffffff167f06239653922ac7bea6aa2b19dc486b9361821d37712eb796adfd38d81de278ca84836040516109a692919061147e565b60405180910390a250919050565b600860009054906101000a900473ffffffffffffffffffffffffffffffffffffffff1681565b60045481565b600780546109ed90611341565b80601f0160208091040260200160405190810160405280929190818152602001828054610a1990611341565b8015610a665780601f10610a3b57610100808354040283529160200191610a66565b820191906000526020600020905b815481529060010190602001808311610a4957829003601f168201915b505050505081565b6000803490506000600454905060006003549050610a8d838383610405565b9350848411610ad1576040517f08c379a0000000000000000000000000000000000000000000000000000000008152600401610ac8906114f3565b60405180910390fd5b3073ffffffffffffffffffffffffffffffffffffffff166108fc849081150290604051600060405180830381858888f19350505050158015610b17573d6000803e3d6000fd5b508260046000828254610b2a919061123c565b92505081905550836000803373ffffffffffffffffffffffffffffffffffffffff1673ffffffffffffffffffffffffffffffffffffffff1681526020019081526020016000206000828254610b7f919061123c565b925050819055508360036000828254610b98919061123c565b925050819055503373ffffffffffffffffffffffffffffffffffffffff16600073ffffffffffffffffffffffffffffffffffffffff167fddf252ad1be2c89b69c2b068fc378daa952ba7f163c4a11628f55a4df523b3ef86604051610bfd9190610e7d565b60405180910390a3505050919050565b6000816000803373ffffffffffffffffffffffffffffffffffffffff1673ffffffffffffffffffffffffffffffffffffffff1681526020019081526020016000206000828254610c5d9190611372565b92505081905550816000808573ffffffffffffffffffffffffffffffffffffffff1673ffffffffffffffffffffffffffffffffffffffff1681526020019081526020016000206000828254610cb2919061123c565b925050819055508273ffffffffffffffffffffffffffffffffffffffff163373ffffffffffffffffffffffffffffffffffffffff167fddf252ad1be2c89b69c2b068fc378daa952ba7f163c4a11628f55a4df523b3ef84604051610d169190610e7d565b60405180910390a36001905092915050565b6002602052816000526040600020602052806000526040600020600091509150505481565b60006003821115610db45781905060006001600284610d6c91906112e1565b610d76919061123c565b90505b81811015610dae578091506002818285610d9391906112e1565b610d9d919061123c565b610da791906112e1565b9050610d79565b50610dc2565b60008214610dc157600190505b5b919050565b6000818310610dd65781610dd8565b825b905092915050565b600080fd5b6000819050919050565b610df881610de5565b8114610e0357600080fd5b50565b600081359050610e1581610def565b92915050565b600080600060608486031215610e3457610e33610de0565b5b6000610e4286828701610e06565b9350506020610e5386828701610e06565b9250506040610e6486828701610e06565b9150509250925092565b610e7781610de5565b82525050565b6000602082019050610e926000830184610e6e565b92915050565b600081519050919050565b600082825260208201905092915050565b60005b83811015610ed2578082015181840152602081019050610eb7565b60008484015250505050565b6000601f19601f8301169050919050565b6000610efa82610e98565b610f048185610ea3565b9350610f14818560208601610eb4565b610f1d81610ede565b840191505092915050565b60006020820190508181036000830152610f428184610eef565b905092915050565b600073ffffffffffffffffffffffffffffffffffffffff82169050919050565b6000610f7582610f4a565b9050919050565b610f8581610f6a565b8114610f9057600080fd5b50565b600081359050610fa281610f7c565b92915050565b60008060408385031215610fbf57610fbe610de0565b5b6000610fcd85828601610f93565b9250506020610fde85828601610e06565b9150509250929050565b60008115159050919050565b610ffd81610fe8565b82525050565b60006020820190506110186000830184610ff4565b92915050565b60008060006060848603121561103757611036610de0565b5b600061104586828701610f93565b935050602061105686828701610f93565b925050604061106786828701610e06565b9150509250925092565b60006020828403121561108757611086610de0565b5b600061109584828501610f93565b91505092915050565b6000602082840312156110b4576110b3610de0565b5b60006110c284828501610e06565b91505092915050565b6110d481610f6a565b82525050565b60006020820190506110ef60008301846110cb565b92915050565b6000806040838503121561110c5761110b610de0565b5b600061111a85828601610f93565b925050602061112b85828601610f93565b9150509250929050565b7f494e53554646494349454e545f414d4f554e5400000000000000000000000000600082015250565b600061116b601383610ea3565b915061117682611135565b602082019050919050565b6000602082019050818103600083015261119a8161115e565b9050919050565b7f494e53554646494349454e545f4c495155494449545900000000000000000000600082015250565b60006111d7601683610ea3565b91506111e2826111a1565b602082019050919050565b60006020820190508181036000830152611206816111ca565b9050919050565b7f4e487b7100000000000000000000000000000000000000000000000000000000600052601160045260246000fd5b600061124782610de5565b915061125283610de5565b925082820190508082111561126a5761126961120d565b5b92915050565b600061127b82610de5565b915061128683610de5565b925082820261129481610de5565b915082820484148315176112ab576112aa61120d565b5b5092915050565b7f4e487b7100000000000000000000000000000000000000000000000000000000600052601260045260246000fd5b60006112ec82610de5565b91506112f783610de5565b925082611307576113066112b2565b5b828204905092915050565b7f4e487b7100000000000000000000000000000000000000000000000000000000600052602260045260246000fd5b6000600282049050600182168061135957607f821691505b60208210810361136c5761136b611312565b5b50919050565b600061137d82610de5565b915061138883610de5565b92508282039050818111156113a05761139f61120d565b5b92915050565b7f4f6e6c79206f776e65722063616e20616464206c697175696469747900000000600082015250565b60006113dc601c83610ea3565b91506113e7826113a6565b602082019050919050565b6000602082019050818103600083015261140b816113cf565b9050919050565b7f496e73756666696369656e74206c697175696469747900000000000000000000600082015250565b6000611448601683610ea3565b915061145382611412565b602082019050919050565b600060208201905081810360008301526114778161143b565b9050919050565b60006040820190506114936000830185610e6e565b6114a06020830184610e6e565b9392505050565b7f696e73756666696369656e74206f757470757420616d6f756e74000000000000600082015250565b60006114dd601a83610ea3565b91506114e8826114a7565b602082019050919050565b6000602082019050818103600083015261150c816114d0565b905091905056fea2646970667358221220c8f15c3b54f0a6848e75029f45b95533712a8ee691d3a54dffdcb30970355d0f64736f6c63430008140033",
  "linkReferences": {},
  "deployedLinkReferences": {}
}